:0200000407FCF7
:100000000057FC07C101FC07C901FC07E101FC071F
:1000100000000000000000000000000000000000E0
:10002000000000000000000000000000F901FC07D3
:100030000000000000000000FB01FC07AD17FC07FA
:10004000B91DFC07F71DFC07A526F0074118FC07A2
:10005000E91CFC07FF01FC07A116FC07FF01FC07D8
:10006000FF01FC07FF01FC072F14FC073314FC07FA
:100070003714FC073B14FC073F14FC07FF01FC0787
:100080007914FC07FF01FC07FF01FC07FF01FC07D7
:10009000FF01FC07FF01FC07FF01FC07FF01FC0754
:0800A000000000008E070E00B5
:0200000407FCF7
:100110000448854604F03CFA004800478903FC0780
:10012000C046C0460057FC0710B520480189C908E1
:10013000C9000181008A1E4CC00715D0608A800763
:10014000800F012810D91B481949428820310A81A3
:1001500082888A80C2880A80618AFF228132008870
:100160009143C001014361821349062008800F209A
:1001700000F00EF8012000F00BF8002000F008F865
:1001800060890421884360810020208062B610BD10
:10019000002809DBC106C90E012088400749086014
:1001A000BFF34F8FBFF36F8F704700000003005005
:1001B00000000050A000FC070034005080E100E087
:1001C0000F4880470F48004704207146084203D07B
:1001D000EFF309800C490847EFF308800A49084704
:1001E00004207146084203D0EFF30980074908470D
:1001F000EFF3088005490847FEE7FEE7FEE7FEE764
:100200002901FC071101FC079D02FC071102FC07F4
:1002100010B504461E484089C00508D51B2000F0D3
:10022000C7FF1B486030018801221143018005226D
:1002300012071088518A0007800FFF2381339943EA
:10024000C00101435182134920680860606848601A
:10025000A0688860E068C8602069086160694861DA
:10026000A0698861E069C8610C620B48836A4B62CF
:10027000C36A8B62036BCB62C36B0B63436B4B63D1
:10028000806B8863908AC00601D500BE10BDFEE772
:10029000200000500090FC0700ED00E070B505253F
:1002A00004462D07288A04210843288228894021F2
:1002B0000843288124480126066024490820088034
:1002C00023484089C00507D51B2000F071FF204856
:1002D00060300188314301802888698A0007800FD7
:1002E000FF2281329143C00101436982194920688C
:1002F000086160684861A0688861E068C861206939
:10030000086260694862A0698862E069C8620C633B
:100310001148826A4A63C26A8A63026BCA63C26B0B
:100320000C4940310A60426B4A60806B8860A88A41
:10033000C00608D500BE688A012180088000C90374
:100340000843688270BDFEE780E200E000330050A1
:10035000200000504090FC0700ED00E070B5094E11
:100360000D4604461146304601F0A0FAAAB2012318
:100370002146304601F00EFB70BD10B5014801F07A
:1003800041FB10BD0011005008B500F0C1F800F0AD
:100390006DFB01250026052424070EE0284600F009
:1003A00027FA0421684600964DF7C8FB002801D0C3
:1003B00000F0E1FA60F7B4FC0BE02089000608D5F4
:1003C00001208007006B000403D499480078C0071F
:1003D0000BD072B601F0A2FD042810D0022815D06F
:1003E000032813D001281ED01EE05DF706F8002078
:1003F00000F0FEF98F4800780428DBD1CEE78E4864
:100400000078012801D0032000E0022000F04AF823
:10041000A08AC00602D589490820088030BFA08A7A
:1004200000F004F800E030BF62B6C6E710B500F097
:100430007DF9834902280CD105200007408AC005B8
:10044000820F804802800A8942808A8882800A88D6
:10045000C28048896021C00500280ADB78486030E6
:100460000088C00705D0764A2032508A8843203061
:100470005082754882888A43203282807348C078CF
:10048000002807D07248006801898AB241680320B9
:100490005CF714F903F055FA6E48016904229143A0
:1004A000016110BD38B56946052408702407218A0A
:1004B000054604221143218200F063F86048418917
:1004C0006022C905002905DB5D4B2033598A914321
:1004D000403159825C498B88934340338B80022D95
:1004E00001D0032D13D18188490849008180002063
:1004F00000900099491C00911429FADB6189890850
:100500008900491C618161894906FCD5608038BD3C
:10051000F0B55148514905230127514A884201D37A
:100520001C4604E0904201D33C4600E000244D4DBF
:100530004D4E4648AD194D4E8470AD190126B60397
:100540004560B54201D8142500E000252540484CFF
:1005500045708C4213D2474B2546EB18944205D385
:100560008B4201D211230AE03B4608E0934201D2BC
:10057000142304E08B4201D2102300E00023037017
:10058000F0BDF8B5022801D0032848D1314A1369DB
:1005900004210B4313612C4A203A93895B085B00CA
:1005A000938105241022294E240702287578608A39
:1005B00036D010436082608A084360827068C01C35
:1005C000870801F01BFB608A1021084360822A48DB
:1005D0007F1E0762EFF31080012181F310882188CC
:1005E000802291432180002800D0012080F31088D0
:1005F00013484089C0050AD501F0EEFA0B2000F03F
:10060000D7FD0F486030018801221143018003208B
:100610005CF77AF8002806D00120F0702583F8BD39
:1006200090436082F3E70020F07030780540F5E7F2
:1006300054BAFC07947DFC07B4BAFC0700330050A1
:1006400020000050A000FC0720030050507CFC0755
:1006500058B9FC0700ED00E0487CFC070070FC077F
:100660000040FC071001FC075C4E0000000004F88D
:100670000057FC070C0800000000F407704770B535
:100680000D46002442F73BF92855641CE4B2202CA7
:10069000F8D3002070BD10B55EF71CFD10BD10B57D
:1006A0005EF721FD10BD70477047704706498842CC
:1006B00000D000BE05210907488A01228008800079
:1006C000D203104348827047111111114448017838
:1006D000002902D0802141707047424900200870F3
:1006E0004149C87070473E490A78002A03D0002863
:1006F0000CD002200BE0002801D0022000E00120F5
:100700003849087038490120C8707047012080308E
:1007100048707047002805D0012804D0022804D171
:100720000120E0E7D2E70020FBE770472D490020D9
:100730000978002904D0012903D0022900D1022020
:1007400070470120704726488178002904D0491E4F
:100750000906090E817019D142780021002A04D0BF
:100760009207920F0270417004E00278002A01D0D3
:10077000521E02701206120E017007D0012A03D019
:10078000022A03D10120AEE70020FCE7704700B544
:10079000134A9078401C90701078002805D1FFF71C
:1007A000C5FF431CFFF792FF137000BD0C48C078D3
:1007B00070470020EFF31081012282F31088052298
:1007C00012071289120605D40848028901231A4328
:1007D00002811846002900D0012181F3108870475A
:1007E000587CFC07B4BAFC0754BAFC07003300502D
:1007F00010B5FE4CA178002921D0FD49002803D076
:1008000008884007FCD402E00888400717D4CA884B
:10081000888811040A180020A070F648002350436D
:10082000800B401C4008E0611F204006492162F710
:1008300017FEE162A06264214843000CA06110BD74
:10084000EB49488008880322104308800888042266
:1008500010430880E54901208870704770B5052075
:1008600000070189302291430181018980221143CF
:1008700001810189082211430181DF490A88520858
:1008800052000A80438918229343438104894023FC
:100890001C430481048A0425AC430482848AA4078F
:1008A000FCD5D24DAA246C61CD8801240F263602D6
:1008B000B5430B263602AD19CD80CD882543CD80BA
:1008C00044899443083444814A88520852004A803B
:1008D00001899943018101208007016882159143B4
:1008E0000160C64801683F225202914342148918B0
:1008F0000160016802031143016070BD10B5BB497E
:100900000122D203C969904205D303F053FE890541
:10091000800A084310BD4843800A10BDEEE710B5B9
:10092000B24989694843B649401849005EF76AFBF5
:1009300010BDF4E770B500F0C4FB0446FFF7F9FF03
:10094000AA4D288120463C30FFF7F3FFAD49001D3A
:1009500088602A891018C01DAB4A48601278022AA4
:1009600001D111304860FFF7D9FFA849401880B283
:100970005CF7D4FD70BDF0B5A54985B00120C86312
:10098000C86B0028FCD101208007C069974C216901
:10099000884201D2002121611922411AD2019142DB
:1009A0002AD320619B48018803914188029187885E
:1009B000C688994903C900900191684600F04FFE2E
:1009C00000F077FE0546012020567F280CD0281A1B
:1009D00040B2002801DA404240B2082805DBE06856
:1009E000401CE06001F057FC65708A480299418024
:1009F0008780C6800399018005B0F0BD0020704754
:100A000010B5864900200860FFF794FF0120800799
:100A1000016B49004908016310BD08B5734988801E
:100A200075498A88520852008A80002200920099F3
:100A3000491C00911429FADB052109074B899B0801
:100A40009B005B1C4B814B895B06FCD54880E120F9
:100A5000C0000092521C00928242FBDB4889800851
:100A60008000488148890006FCD508BDF8B56C486F
:100A70000826068000F0E2FB6A4CA18868460180E7
:100A80000088C046C04668460088042398433ED08C
:100A90000020A0806348203001880F229202114379
:100AA0000180554A2032518A314351825249603186
:100AB0000C880625AC430C800588CC0125430580B5
:100AC000558AA5435582948A0E25AC43A41D948271
:100AD000494C6589EF05544D0F881DD5AF4315016D
:100AE0007D190D800D880F022D052D0DED190D803E
:100AF00005883543058005889D4305800D886D0870
:100B00006D000D8001884025A943018020E0208AE6
:100B1000400840002082BDE7AF4303256D027D19E8
:100B20000D800D880F273F033D430D800588B54399
:100B3000058005889D430580958A03267602B54386
:100B400095820D88012635430D8061894907FCD5C2
:100B50000188032529430180558A60218D43203572
:100B6000558282888A432032828001201F4E0525CB
:100B700030702D07E88AC02188438030E882208ABF
:100B8000000A00022082208B1C2188430830208329
:100B900026480380A8880121C9028843A88048010B
:100BA0002349086001F02AF8022000F0ECFF214CF4
:100BB0002069C0B2AA286AD0012029880C2291435A
:100BC0008000014329800948203000F0A3FA00F09A
:100BD0001DF900F073FA00285BD000F06FFAFFF700
:100BE0001CFF7F207070A06A064925E0607CFC072E
:100BF00000160050111101002000005000020040BA
:100C000020A107007050FC07B4BAFC07E204000002
:100C1000C000004000150050A848FC07A8B9FC0718
:100C20000033005000030050000F0000000200508D
:100C300080E200E0C07FF807086001F00FF800F0E4
:100C400035F802F07EFE012041F75FFEFFF706FE59
:100C50001448006841F7FEFA13490020C870087173
:100C600001208007016882151143016000F05CFDDE
:100C70001E20FFF7E5FD0120FFF7BAFDFFF726FD77
:100C800002F043F802F07AFEFFF7BAFEF8BD032047
:100C900093E72069C0B2AA2801D06E209FE7802088
:100CA0009DE700004CB9FC0754BAFC0770B5364804
:100CB000344D006835492C6892B0884205D0052231
:100CC0005202334933485EF717FA334E3349304600
:100CD0005EF72BFA0721324809025EF726FA2C60EC
:100CE00003F03AFC30492F48086030480024048063
:100CF00030222F492F485EF7FFF92A4908228868D9
:100D0000C9681191109010A92B485EF7F5F9254993
:100D10004022103168465EF7EFF9402269462748C5
:100D20005EF7EAF9264828490470264808602849F1
:100D30002648086028492748086028490A20087082
:100D40002748284904703220087027490920086084
:100D500026490320086026490B20086025490C20FD
:100D6000086025490D20086024490E200860FF20F6
:100D7000234907300860234908602348066012B001
:100D800070BD00005CBAFC079CB8FC076587341294
:100D900000B0FC07B880FC07009CFC07D01A0000DC
:100DA00000B9FC07B048FC0760BAFC07907CFC0760
:100DB0007CFCF10700BAFC07DAB9FC07B0BCFC0701
:100DC000FDB9FC07603FF20750B9FC074046FC073D
:100DD00054B9FC07BC47FC0758B9FC07B0B9FC077D
:100DE000B1B9FC07D9B9FC075CB9FC0760B9FC07CD
:100DF00064B9FC0768B9FC076CB9FC0770B9FC075B
:100E000048B9FC0744B9FC074CB9FC07F0B5B54C30
:100E100089B00020207660760390B3480169B3481A
:100E2000814202D0C01709B0F0BDAF4F0425403F4A
:100E3000E819016D0191090F092910D001220198CB
:100E4000920790427AD3AA4A904277D8A9490835A6
:100E5000884274D1E819C16CA7484180A6E0019A84
:100E600001991204C9B2160E112935D007DC0B0006
:100E70005EF796F9087474747474740D1F741239E3
:100E80000B005EF78DF9063A4B5D6B60656B207E5B
:100E9000B200C100934840380818934914316918CA
:100EA0005EF72AF9207E8019C0B22076042854D833
:100EB00054E0607EB200C1008A48403808188A4970
:100EC0001030143169185EF717F9607E8019C0B2CE
:100ED00060760C2841D841E0416D89B20291406DA5
:100EE000000C01460490029800F0EEF8A0800499EE
:100EF000029800F0F1F8E08030E0416D89B2049191
:100F0000406D000C01460290049800F0DDF820814D
:100F10000299049800F0E0F860811FE0039805A9A9
:100F2000800040187049B200143169185EF7E4F887
:100F300003988019039002280FD80FE02BE010E0EF
:100F4000406D60820AE0416D66484038016405E00A
:100F5000406D0004000CA08200D100BEB000451915
:100F60004AE064492639884203D1E819C06CE0821E
:100F70001CE06049091F884204D1E819C06C5E4931
:100F8000888013E05B49083988420FD1E819C06CAA
:100F90005949C8800AE007292ED008292CD00A29EF
:100FA0002AD0062928D0401C07D000BE4E48103059
:100FB00029185248814200D23AE70598A081069844
:100FC000050C86B22946304600F07EF8E0812946BD
:100FD000304600F081F82082207EC10700D000BE9C
:100FE00040082076607EC10700D000BE40086076D1
:100FF000A18A002902D004E02D1DD7E77D21C90078
:10100000A182042800D000BE00200CE7F8B5354CC2
:101010000025403C334F24E0EE00A0593849884277
:101020001AD1301900904068800A400414D001F0B1
:1010300017FC092810D900980322406812020146C3
:1010400009041040890E0843A159086000982D49F1
:101050004068C001C00D02E030194068A159086025
:101060006D1C387EA842D7DCF8BDF8B51D4C0025B4
:10107000403C2746403717E0E8000619224831690E
:1010800081420DD101F0ECFB092809D91F49706993
:1010900008401C490988490408433169086002E096
:1010A0003069716901606D1C787EA842E4DCF8BD8E
:1010B0000C48808970470B48408A70470948C08AAD
:1010C00070470848808A7047081A0104890C401844
:1010D0000F49401800B27047C2008018401A00043F
:1010E000C0147047D47CFC07C07EF807A5A5A5A551
:1010F0004C42005028000050A000FC07C07FF807B9
:101100004C1000407C50FC0738300040FFFF01FCD1
:101110000100FFFF10B5062201495DF7EDFF10BD8C
:10112000D47FF80705200007018830221143018091
:1011300001880322114301807047052000070188C0
:10114000302291430180018889088900018070471D
:1011500036490A8B03231B029A43000202430A8387
:10116000704733498A8A03235B029A43C3085B02B0
:101170001A438A828A8A0723DB0240079A43800C3B
:1011800002438A822A4840300188012211430180AB
:101190002748203841894907FCD570472448818A6F
:1011A000808A4905890F8004400FC90008187047DC
:1011B0001F498A8A03235B029A43C3085B021A43CE
:1011C0008A828A8A0723DB0240079A43800C024303
:1011D0008A82704710B50446154820384089C005FA
:1011E00002D40120C04310BD00F0F3FC002806D05B
:1011F000FFF7D4FFA04202D90020C04310BD0C4825
:10120000408AC00408D40B480088000704D4082C86
:1012100002D20420C04310BD074801210470417070
:101220002046FFF79EFF002010BD00002030005038
:1012300040000050200300508050FC07F0B585B0FE
:101240000026884C029602983021484300960019E7
:101250000099890046500099491C00910C29F7DB40
:101260000298401C02900128EDDB02F0B7FA7D4D98
:101270000021083D29606960012702960020009046
:10128000029979484900465A00993846884080B208
:1012900006421DD002983021484300990019890068
:1012A0004058411C1BD000280DD0C117009A5DF793
:1012B00067FF029A12015DF763FF2A686B681043AB
:1012C0001943286069600098401C00900C28DBDB03
:1012D0000298401C02900128D0DB05B0F0BD00BE92
:1012E000E3E7F8B5164605460C460A461F460120B8
:1012F00000215DF745FF2A015DF742FF594B083B8E
:101300001A685B6810401940084300D100BE6801AC
:1013100056494018610008183E43C680F8BD70B5B4
:1013200005460C460A46012000215DF729FF2A01E7
:101330005DF726FF4B4A083A13685268184011407F
:10134000084300D100BE6801484940180121A1406E
:10135000818070BD70B505460C460A46012000210B
:101360005DF70EFF2A015DF70BFF3E4A083A13684E
:10137000526818401140084300D100BE68013B4943
:1013800040180121A140418070BDFFB581B00C46DD
:1013900005460A461F46012000210A9E5DF7F0FE21
:1013A0002A015DF7EDFE2F4B083B1A685B68104081
:1013B0001940084300D100BE002E2146284602D025
:1013C000FFF7C8FF01E0FFF7AAFF3B46214628468A
:1013D000039AFFF786FF80E770B5012421460A389B
:1013E00081400D4688B200F02CF884402048C18925
:1013F000A9430C43C48170BD10B504460A380428C3
:101400000BD82046FFF7E8FF1649A00030314018FE
:101410008038806D002801D0804710BD002CFCDB97
:10142000E106C90E012088401249086010BD0A205B
:10143000E2E70B20E0E70C20DEE70D20DCE70E20E2
:10144000DAE700280BD0411E4840C003010C002001
:1014500002E04908401C80B20029FAD170471020F0
:1014600070470000F87CFC070049FC070030005082
:101470000014005080E200E010B5FFF75EFE052288
:10148000120790882049000504D5204B1C880520B0
:10149000A04311D09088C3061D481FD58388DB0761
:1014A0001CD003881B0619D5012282800288802364
:1014B0009A430280486822E018880422104318806A
:1014C00018884008400018800C68002C05D00220C5
:1014D000185E995E0A229A5EA04710BD9288D206D5
:1014E000FBD582889207F8D50288D205F5D502226D
:1014F00082800288FF2301339A4302808868002893
:10150000EBD0804710BD00003C7DFC07000200507E
:10151000000100507D48018801221203914301809F
:1015200070477A4801880122120311430180642028
:1015300000BF401EFCD170477449CA88D208D2004F
:101540000243CA8070477149CA8870239A430001D8
:101550000243CA807047F8B5050049D06B4C297822
:101560002088402290438901084320806878FFF753
:10157000EAFF2878002803D168780009FFF7DCFF2C
:10158000E87804260128208833D0B04320802879C9
:10159000A1880002C9B20143A180E088012740066A
:1015A000400F7F02042826D0FFF7B4FFA8780F2849
:1015B00000D900BE61880F225202914340020143CC
:1015C0006180687961888908890001436180A87910
:1015D000012820883BD0B8432080E879072800D92B
:1015E00000BE6188FF22C1329143800101436180C6
:1015F000F8BD3043CAE7FFF75EFD45490028088083
:1016000001D144480880FFF78CFF208838432080B0
:1016100021884020814301432180608830436080DD
:101620006088C004C00C608060880F214902884334
:10163000084360806088FF21C1318843FF218131E8
:10164000084360806088800880006080F8BD38436F
:10165000C2E72E480188012211430180704770B50E
:1016600005462A4C00202080212000016080402077
:10167000A080FFF71DFDA081A1897020814340312A
:10168000A181062000F035F82846FFF764FFFFF738
:10169000E0FF70BD1D4801880222114301807047A0
:1016A0001A490120C8811C480068002800D0004762
:1016B000704710B5FFF7EEFF144801888907C90F7E
:1016C000FBD10121C181008A114A14491288801A74
:1016D0007D22D2005043002801DD4A1002E000289C
:1016E00001DA0F4A80185DF7A3FC8011193040B26F
:1016F00010BD002809DBC106C90E01208840094938
:101700000860BFF34F8FBFF36F8F70470015005015
:101710008250FC0740760000487DFC07AA050000C7
:101720002BFDFFFF80E100E0F8B51D481B4D006870
:10173000A84231D0FF26C136012130465BF74CF874
:1017400004461848016818480A0A017042700A0CD9
:101750008270090EC1700022A35CFF21C0319F0777
:10176000891ABF0F615CC75D79405940A154521C72
:10177000B242F1D30C481C222146001D5FF750FCF9
:10178000002800D000BE20465BF7A1F8064840685C
:1017900041F7BBF802480560F8BD000065873412C8
:1017A0009CB8FC077050FC078450FC070248006896
:1017B000002800D0004770474C7DFC078307FF22BC
:1017C000DB0E9A408907090E9940002808DB830840
:1017D000DB489B001B18186890430843186070474B
:1017E0000007000F08388308D6489B001B18D869EB
:1017F00090430843D8617047D34930B4884201D040
:10180000012100E00021D14A4901891808E0838ABA
:10181000DB07DB0F12D00388541C8D68CC81AB54DE
:10182000CA898B899A42F2D38288520852008280F8
:101830008A69002A02D0C88930BC104730BC704782
:1018400010B5C34800F0FBF810BDEFF31081012282
:1018500082F31088BC4B052212079842908801D170
:10186000802300E0402318439080002903D001200A
:1018700080F3108870470020FAE710B50246403226
:10188000938FDB07DB0FFBD18389802293431343C4
:101890008381CCB2C0231C520B041B0E03800902AF
:1018A000090E818081899143818110BDA64A9042B1
:1018B00001D0012000E00020A44A400180184161CD
:1018C0007047F0B5A04F0D460446B84201D0012044
:1018D00000E000209D49400146182046FFF7B5FF73
:1018E0007C20005B28680102090A2046FFF7C5FF3B
:1018F000E978C8068A06800FD20FC0009200490717
:101900001043490F0843A081E878C1092046803080
:101910000183E978CA091AD0BC4210D14906CA0F1E
:10192000218A20239943520111432182E9784906F3
:10193000CA0F218A02239943520011432182297937
:101940000907890F818329798907890F0184287AFA
:101950003077E8683061286970616869B06128791A
:101960000007800F7077F0BD828A5209D207D20F2C
:10197000FAD00180704730B513460C46054606E0A4
:1019800021782846641CFFF7EFFF5B1E9BB2002BFB
:10199000F6D130BD70B56C4D0446A84201D001208F
:1019A00000E00020694E400186190020F080B280DE
:1019B000002B06D0012B07D13160AC4205D10220AB
:1019C00004E02046FFF7D7FF70BD032000F029F8A0
:1019D000A088022188430843A080A08880218843F2
:1019E0000843A080317FAC4201D1022000E00320F7
:1019F000FFF7E4FEAC4201D1022000E0032000F03A
:101A000007F870BD818A8909C907C90FFAD07047E4
:101A1000002805DBC106C90E012088404D49086039
:101A2000704700280ADBC106C90E012088404949D9
:101A300080310860BFF34F8FBFF36F8F7047F8B5E9
:101A4000414D424E044620890007000F062826D04B
:101A500009DC012840D002281DD00428F3D12046FB
:101A6000FFF7CAFEEFE7072828D00C28EBD1AC42DD
:101A700001D0012000E00020400187192046FFF737
:101A8000BBFEA18849084900A180B9690029DAD0C4
:101A9000F8898847D7E7204600F01FF8D3E72046AB
:101AA000AC4201D0012100E00021490189190A69F5
:101AB000002AC8D0818A9E2319400BE02046AC4200
:101AC00001D0012100E00021490189190A69002A99
:101AD000B9D001219047B6E7F8BD1B4930B4884220
:101AE00001D0012100E00021184A490189180EE0C7
:101AF00003891B069B0F032B1BD0838A9B06DB0FDE
:101B0000002B1BD0531C0C68CB80A25C0280CA88BF
:101B10008B889A42ECD3828802239A4382808288FF
:101B200080239A4382804A69002A07D0888830BC83
:101B300010477C231B5A9B07DB0FE1E77EE6000082
:101B400000E400E000ED00E000100050507DFC07D4
:101B50000011005000E100E010B50446FFF71EFB45
:101B6000A04202D22046FFF723FB58480188C9074C
:101B700008D101880122114301805448603841890D
:101B80004907FCD510BD38B5514C054620684107C2
:101B9000490F684601700078854219D04B4860387B
:101BA0004089C0050CD5A81E03005DF7F9FA0504AD
:101BB0000604040409000B2000E01320FFF7CCFF0B
:101BC0002068C008C0002843206060684007FCD53A
:101BD00038BD4048007870473E4900200870704783
:101BE000052109070988090600D400BE80003A498A
:101BF00009583748016139494161704710B5EFF321
:101C00001084012080F31088304860384089C00576
:101C10000BD5304901200870FFF7C0FA3049087031
:101C20002A480088C007C00F4870052000070188B7
:101C300080221143018026480168C908C90001605B
:101C400041684907FCD50320FFF7CAFF002C03D0E9
:101C5000012080F3108810BD0020FAE770B5EFF383
:101C60001084012080F3108805210907088880224C
:101C70001043088016480368DB08DB0003604368F4
:101C80005B07FCD5174B0361144B436108889043F5
:101C900008800E4860384089C0050ED50D490020E7
:101CA0000F4D08702878FFF783FA6878002804D170
:101CB00006480188490849000180002C03D0012012
:101CC00080F3108870BD0020FAE70000800000500B
:101CD0000000F407907DFC070449FC07090404A4F4
:101CE0008050FC070F00990910B50A4880890A49FD
:101CF000C96A002901D0884710BD042000F001F80E
:101D000010BD002805DBC106C90E0120884003492B
:101D100008607047201300509850FC0780E200E0F4
:101D2000F8B50125AD07AC6B2046FEF7F7FD694914
:101D3000694F4A68861800204860394630465DF78A
:101D400061F9664948603A465043301A00D0381A63
:101D500080B20860286B08218843084328636048E4
:101D6000046060480068002802D0A04200D200BE93
:101D7000F8BD10B5FFF7E1F9052000074189890793
:101D800003D041898908890041810189802211435A
:101D90000181018A042291430182818A8907FCD54D
:101DA00000F0B4F8012080070169490700D500BEA2
:101DB00001694907FCD510BD10B54B4C08202080A7
:101DC000FFF7B0F920894007FCD4FFF7B6F9474880
:101DD00005210088090748804548464C0088801E38
:101DE000608007202080FFF79DF920884007FCD401
:101DF000FFF7BFFF10BDF8B53F480168C90703D022
:101E000001680222114301600168490204D501689A
:101E1000012292051143016001272E4EBD072C6956
:101E2000002C55D0200606D58020A8614BF72FFD49
:101E30001E20FEF705FDA00703D50220A86147F785
:101E400024FC200708D50820A861002047F7D6FB0E
:101E50000420307000F0FBFCE00505D5FF200130C8
:101E6000A861012047F7CAFBA00504D50120400264
:101E7000A8614BF775FD600603D54020A86147F7C0
:101E8000B8FBE00603D51020A86145F775FF600791
:101E90000FD50420A861144801894908490001812F
:101EA0005BF712FB40F7CCFB1E20FEF7C9FC0020BD
:101EB0003070E00706D00120A8615BF721FB4BF7EB
:101EC000E6FC3770A006AAD52020A86100BEA6E7D0
:101ED000F8BD0000947DFC07710200004000004046
:101EE000A47DFC079C7DFC0700330050647CFC074C
:101EF000687CFC07001600500002004010B540F757
:101F0000E4F9674880686749486010BD10B540F73C
:101F100008FA644862494068886010BDF8B5002539
:101F200000F0B9F800270090FEF740FC01465E4E35
:101F30000020002902D13179022900D100905B49AB
:101F40000989C9070DD15AF724FB002809D0F07878
:101F50000125002805D005200007808AC00701D090
:101F6000042596E0308800287DD1FEF71FFC00286C
:101F700006D14F48806A002802D000F08CF800900B
:101F8000FEF7D8FCB17868465BF7FBF800286AD00A
:101F90000124A407206940067BD443488178684621
:101FA0004BF7CCFD002874D00120FFF7D1F8009941
:101FB000002906D0206AFF383938DA2801D8491EAE
:101FC00000913C4802883C48016850183B4A106028
:101FD000E26B920A92020A43E263E16B384A1140D3
:101FE000384A1668B2021143E163E16BC902C90ABB
:101FF00040050143E163344A0098042500219042E2
:1020000000D300BE314B0CCB5DF726F80903000D61
:102010000843244A401E711C1060884200D116609B
:1020200021480079002801D0012100E0002110683A
:1020300047F79AFC2648C06A8047FEF7DFFC002875
:1020400002D0FFF76FF80127154E206B0004C00F78
:10205000FBD03068C005FCD530688024A0433060D8
:10206000002F03D000E014E0FFF767F80F4948891C
:10207000462804D24622174B101A18604A81FFF7EF
:102080003DFF30680006FCD5052000070189A1430B
:1020900001812846F8BD10480068806A704700003A
:1020A000000200409C7DFC0754BAFC07003300503E
:1020B00074BEFC07687CFC077850FC07C850FC071E
:1020C000FF03E0FF7450FC0740420F00887CFC07D0
:1020D00058BFFC07987DFC0758B9FC0700207047E3
:1020E0007047704710B5282801D2282002E0E62862
:1020F00000D9E620FF21F33148437D21C9005CF778
:1021000081FF8130C0B210BD7047704710B5022901
:1021100002D0012900D000BE032802D3FF2802D03C
:1021200000BE022902D000F09BFB10BD0C2010BDA8
:1021300001218907086B0722104308638C48016856
:10214000021391430160704710B50220FFF700F8B9
:10215000874801680203914301608648002141637A
:10216000416B1F22120491434213891841630106F7
:102170000868F0229043E030086010BD10B58AB0C6
:102180007D4941627D4981627D4941610024302160
:102190000C547C49C1627C4901607C4901627C49E4
:1021A00041607C49C16100F03EFB7248416B1F22D7
:1021B000120491434213891841636D480168C212A9
:1021C0009143016068460455641CE4B2282CFAD39C
:1021D000014671482822006840305CF78DFF0920D5
:1021E00000F03BFB00F03FFB002802D0012000F094
:1021F00034FB00F019FBFEF709FFFEF736FF00F095
:10220000D5F800F058F8FFF79FFF00F00BFB00F047
:1022100083F800F01CFB0AB010BD10B55548416BA7
:102220001F2212049143421389184163000601687A
:10223000C908C9000160052000070189082211436F
:10224000018100F010FB002802D0012000F005FB06
:1022500000F0EAFAFEF7DAFEFEF707FF00F0A6F854
:1022600000F029F8FFF770FF00F035F800F0EFFA02
:1022700010BD10B504467022484949485CF73CFF40
:1022800047484830011B46481038018344495C31B7
:10229000091B418310BD10B500F0C6FAFEF7E5FE3C
:1022A00000F084F800F007F800F0BCFA00F023F822
:1022B00000F0CDFA10BD2F4B10B540331868394CE3
:1022C0000102090EC2B20A3109040A322040114348
:1022D0000143196010BD344A118B314810308369B5
:1022E0001B0C1B040B438361518BC269120C12043B
:1022F0000A43C26170472C4A203A118B284810309B
:10230000C3681B0C1B040B43C360518B0269120C86
:1023100012040A430261704710B5FFF7ECFFFFF7A4
:10232000DAFF21482038018A1D4810308268120CDB
:1023300012040A4382601C4A40329188036A1B0CD3
:102340001B040B430362D188426A120C12040A4335
:10235000426215494A88836A1B0C1B04134383623B
:102360008988C26A120C12040A43C26210BD0000BE
:102370000002004040000040DD20FC07E120FC0797
:102380000D21FC073121FC07E320FC070921FC0794
:102390000B21FC07E520FC074CB9FC072049FC0792
:1023A000709CFC0700FF00FF20300040F0B5FE48A5
:1023B000406B7F21090288430B2109024018FA492A
:1023C0004863086AF94980B24018F7490862886B87
:1023D000F749012208405203F34980188863F24804
:1023E0004030016903231B0219430161818B1024D2
:1023F00021438183EC48203081880124214381805E
:10240000ED49EC480860ED4C20883F2109018843E4
:102410002F21090140182080E84820388169E84DC3
:10242000490D490549198161C169E64D29400925D0
:102430006D024919C1614168E34D2940E34D4919D5
:1024400041608168E24D2940E24D49198160C168CF
:10245000E14D2940E14D4919C1600169E04D294034
:10246000E04D49190161E049C51409780906491987
:10247000C1256D012943DD4D29600525DC49AD02EB
:102480000D816D1D8D81DA4920310D892D0A2D02B6
:1024900055350D818D25AD000D82D64D8D82D64DE1
:1024A0000D83D44D0E3D8D83D349D14DC91D40358B
:1024B0002980D249A181C16BD14C2140D14C09194D
:1024C000C163FF20D04C6C302080CF482030068B79
:1024D0001F2149010B258E43AD0176190683CA4899
:1024E0004030868809278E43BF01F6198680068909
:1024F00015278E437F01F619068186898E4371194F
:102500008181FF208D30A080BF4880300189E02488
:10251000A14319430181818B490949011931818303
:10252000B2482030818B5B01994389188183AF4881
:1025300080300168C908C900C91C0160AB49B348B3
:1025400040314862F0BDA94908B500208031C86219
:102550000090401C0090FF28FBDDAD480078AA49A0
:10256000C006820D4031C8681F235B0198431043A9
:10257000C86008BDA7488C490068403108608A4897
:102580008169890989011C3181618169C213914383
:102590008161016B3F22120691430722920689183E
:1025A0000163016B3F22920191430F22D2018918EE
:1025B0000163016B890989011E31016370477A4803
:1025C000C16949084900C16170478F4808B540306A
:1025D000C1688F4A8905C90E1170C1681F22520156
:1025E0009143C16081490120887180488030C16A6F
:1025F00003221143C16200200090401C0090FF287C
:10260000FBDD08BD08B579490220887100200090E3
:10261000401C00900B28FBDB08BD6348412101777B
:10262000C16903225202914302158918C1617047A2
:102630005D4840300168774A11600021C94301605C
:10264000594881698909890181618169C21391436E
:102650008161C1690322520291430315C918C16106
:10266000C169702399434031C161016B3F231B064F
:1026700099430B235B06C9180163016B3F239B0140
:10268000994389180163016B890989011831016334
:102690007047F8B5554803274771434C6068C00937
:1026A000C00114306060FFF7C3FF43202077FFF7BD
:1026B000A9FFFFF78AFF0025261500950098401C0A
:1026C0000090B042FADB4949032048713648803017
:1026D0008068C705FF0DFFF736FF00950098401C86
:1026E00000901028FADBA0694002400AF90508436F
:1026F000A061A06948490840B9010843A061FFF7FB
:102700008CFFFFF77FFFFFF760FF00950098401CEC
:102710000090B042FADB35490320487122488030EE
:102720008068C705FF0DFFF70EFF00950098401C5D
:1027300000901028FADBA0694002400AF90508431E
:10274000A061A06934490840B9010843A061FFF7BE
:1027500064FFFFF757FFFFF738FF00950098401C14
:102760000090B042FADB2149032048710E488030C6
:102770008068C605A069F60D4002400AF1050843CD
:10278000A061A06924490840B1010843A061FFF796
:1027900016FFFFF7EFFEFFF7D6FE00950098401CEE
:1027A00000901028FADB39E00030004000008888F3
:1027B000FF00FEFF59055C0780000040202000401C
:1027C00009581A00FEE1FFFFE0E00000080929496E
:1027D00000000303696A686C031FFFFF706000005C
:1027E000E0E0E0E00B0A0A08A87DFC0700100040CA
:1027F00020130040340A000051080000070F0000B9
:102800002F64E0FE101A0601001200405001500132
:10281000684FFC07CC50FC073F80FFFF1348468100
:102820000120F8BD35E7704708B51148082101714E
:1028300000210091009A521C0092102AFADB0091AC
:10284000491C00911029FBDB0321417108BD084898
:10285000022181710021818070470649087070470C
:10286000044800787047034840787047D050FC0710
:1028700000100040A87DFC07FFB585B00C46FD2088
:102880005EF7B6FC03900027684607700898694613
:10289000060A20885FF7D8FD05466088002800D02A
:1028A00000BE002D6AD1FD2000F056FF6946097870
:1028B0001423594342680B1DD35C022B21D151587C
:1028C000354A098891421CD10197029720885FF709
:1028D00056FD002800D100BE01AB002204A94EF72E
:1028E00043FB049821468005C00F5FF733FD0506C2
:1028F0002D0E43D168460178E28830465FF705FF28
:1029000021E000280BD080698446002807D0684663
:10291000A2886188A31D00786546A84705460197EF
:102920000297208801A94EF79AF8002D26D1019828
:102930000089C00B07D16288A1882088A31D4EF7AB
:10294000F8F8051E1AD1314603985EF76FFC014670
:10295000A088079A801D83B210485AF74BF80746A3
:10296000A288A11D801D5CF7C7FB684600787880AF
:10297000A088B8803E7038465AF757F804230848B4
:10298000079A08995AF736F82188018085705AF716
:102990004CF8002009B0F0BD022900000AFD00003B
:1029A000160C0000F8B50025244CFF272E46002801
:1029B00013D1284610302661A082E7826660A660A7
:1029C000E681A681C0B2214626605AF712FA6D1C34
:1029D000EDB21834022DECD3F8BDE08A5EF78EFC20
:1029E000002802D0416820468847E7826660A660DA
:1029F000E681207D5AF757FA6D1CEDB21834022D8E
:102A0000EBD3F8BDF1B50D4D0D4F00242E46E88AED
:102A1000FD2803D11820604380194760E88A5EF7DB
:102A20006DFC002803D08268284600999047641CFA
:102A3000E4B21835022CEAD3F8BD0000B07DFC07E3
:102A4000E849FC0710B500F0F3FB00F0CCF90120D9
:102A5000FDF760FE10BD0C21394A10B541438918BD
:102A60008978FF2902D000F0DCF810BD01F051F8A0
:102A700010BD10B501F00FF9002801D001F049F8A0
:102A800010BD10B501F045F810BD10B52D490A78FC
:102A90000270401C491C5CF72FFB10BD2949498C72
:102AA0000180704708210180102141800021818030
:102AB0007D21C180704770B50C4601780025214BFF
:102AC000002904D0012909D04820207070BD8278E7
:102AD000011D1A70581C5CF70FFB01E040885884F8
:102AE000257070BD012008700020488088807047E4
:102AF00010B500F0C4FC10BD1FB54978002908D0FE
:102B0000114A012901D002290DD10123009204228A
:102B100006E00EA21ECA03946C460EC401231022C6
:102B2000694600F0CBFC1FBD10B50446497800F0A3
:102B3000C7FA204600F001FD204600F0F2FC10BD6F
:102B4000F47DFC072C7EFC0740E20100000102033B
:102B50000405060708090A0B0C0D0E0F0021A94AEF
:102B600005E0834201D101207047491CC9B20C2302
:102B70004B43D35CFF2BF4D10020704770B5A149C3
:102B8000A14C0E460C36A14D0DE052185268002A99
:102B900007D0C2B20C235A4351184968401C6070D8
:102BA0002DE0401C607060780C2242438B5CFF2B50
:102BB000EBD10AE089194968002903D0FFF7CEFF5D
:102BC000002809D02078401C207021780C20414337
:102BD000705CFF28EED117E020780C214143891961
:102BE0004968401C20700AE04919C968002909D0C9
:102BF000C1B21C2251434919C968401CA0708847C2
:102C0000002070BD401CA070A0781C2141436A5C6C
:102C1000FF2AE9D10020A07060702070012070BDF3
:102C2000ACE7F8B505460024764E0AE080198168C5
:102C3000002904D0641CE4B22846884701E0641CE3
:102C4000E4B220460C214843315CFF29EED16D4EA1
:102C500000240C3609E08F19B968002903D0FFF76A
:102C60007DFF002809D0641CE4B20C216143705C34
:102C7000FF28F0D10024654E10E0641CB968E4B26E
:102C800028468847F1E780190169002904D0641CAF
:102C9000E4B22846884701E0641CE4B220461C21C7
:102CA0004843315CFF29EED1F8BD70B5564E7068CF
:102CB000002828D12C2304220921554859F79AFECF
:102CC000032101700A2170604170172101840025E1
:102CD00085760446458010210A305CF726FA2021CB
:102CE000E176A583E5834B486584C08F00210028E9
:102CF00000D90846E0844748002140300088002879
:102D000000D908462085706870BDFEB500243E4E8F
:102D1000254614363B49009501950C22343168460E
:102D200002955CF7E9F90C20604380190C22694692
:102D30005CF7E2F9641C032CECDB334C09224C34C5
:102D4000227035A1601C5CF7D7F92E4965842431C7
:102D500004205AF74EF8002104205AF77CF8FEBDF3
:102D600010B501020446022304222E480A3159F705
:102D700041FE0C22012154430170234A132141706A
:102D800014320021A218D17059F74FFE10BD70B552
:102D90000D460102234814462C230422801E0A31CA
:102DA00059F728FE014620310D724C7259F73DFE4D
:102DB00070BD10B5FFF779FF59F737FE12490020B3
:102DC000486010BD104A002138324B00D35C83426A
:102DD00003D14800801840787047491CC9B20A29BD
:102DE000F3D304207047084910B50020FF23383181
:102DF000042442008B545218401CC0B254700A285C
:102E0000F7D310BD244AFC07E07DFC07444BFC07C8
:102E1000040D0000F0BBFC074D554C54495F434F77
:102E20004E000000040E000010B510465AF728F8B6
:102E3000002802D000BE002010BD01230422092179
:102E40009A4859F7D7FD0121017059F7EEFDF2E7D5
:102E500010B50C780F2C17D00CDC0C2C14D004DC23
:102E6000012C13D0032C0DD116E00D2C0CD00E2C00
:102E700008D109E0112C07D0122C05D0132C03D057
:102E8000172C01D000F015FF002010BD4878002855
:102E900005D1FFF78EFFF7E74878002801D000BE84
:102EA000F2E700F073FDEFE7F8B51C4610460E465A
:102EB00059F7E6FF022802D000BE0020F8BD240A20
:102EC000032C00D300BE0C202746474378483D180A
:102ED000AC70FF2C1AD00121E9700321042059F7AE
:102EE000BAFF73483188C153707A28713146681D22
:102EF00006220A315CF700F97A206E4960434018D7
:102F00006030017E01222046FFF741FF3146204616
:102F100000F037FED1E770B50D784C78092D04D05C
:102F2000002C00D000BE00F0C4FE002070BD70B5C3
:102F30001D4610460C4659F7A3FF2A0A032802D063
:102F400000BE002070BD0C2042435948FF211018DC
:102F500081700021C170204600F01FFEF1E7F0B53E
:102F600008780025544C89B01F461646002804D026
:102F7000012817D0022827D129E06846FFF785FDF0
:102F8000684603783246394620460A3359F732FDFF
:102F90000446057068460278411C6280201D5CF77B
:102FA000ABF82BE069460D806846FFF777FD0A23F2
:102FB00032463946204659F71DFD01210170694608
:102FC0000988418059F731FD002009B0F0BD0A237E
:102FD0003946204659F70EFD04466846FFF762FD64
:102FE0000220207068460088608068464088A08083
:102FF00068468088E0806846C08820812046E1E7F6
:10300000002070470020704738B50C4648206946BC
:1030100008701D0A2046FFF74EFD274829020223AB
:103020000422801C0A3159F7E5FC69460978417091
:103030002178017059F7F9FC002038BD10B5104611
:1030400059F71EFF012809D1FFF7EAFD002805D036
:103050000221042059F7FFFEFFF713FD002010BDE9
:1030600070B518460D460146E1200623000159F7C8
:10307000C1FC044601462846FFF734FD204659F7B7
:10308000D4FC002070BD0020704700207047002055
:103090007047FEB51C46089B0E26084D6F4668C754
:1030A0001346224600F06FF9FEBD0000020D00003D
:1030B000F47DFC07607EFC070B0E0000644AFC07F1
:1030C000F8B50E467A2148430B4D07464419204671
:1030D000082226771430114600F07AFBA01C10223B
:1030E000314600F075FB3FF70AFC6082E85D012184
:1030F0000843E855F8BD0000607EFC0710B50A786B
:10310000180A13005CF74CF80805191919131A1A54
:1031100016190C22434C424312190123D3727A220E
:10312000414C00234243A354FFF7E2FC06E0FFF7C3
:10313000E3FC03E0FFF7F8FC00E000BE002010BD58
:10314000FFB5180A1E4681B01B0A00901C467A2063
:1031500044430C2534486B430A78324D2018074607
:103160005D19921E603713005CF71AF806041236D8
:1031700019222D3689783976C90706D0691D0622AD
:1031800071305BF7B9FF2879F8750020E87228E004
:103190000020E87238760098FFF7E2FD21E0224D2A
:1031A00017223A30891C5BF7A7FF285D042107E04E
:1031B0001D4D10226130891C5BF79EFF285D102198
:1031C000084328550DE0184D1C221E30891C5BF762
:1031D00093FF285D0221F3E73346039A019800F03C
:1031E00068FD002005B0F0BD00207047180A7A2263
:1031F00050430D4A097880186030017600207047EE
:10320000002070470020704700207047FEB51C4624
:10321000089B0726054D6F4668C71346224600F0F7
:10322000B2F8FEBDF47DFC07607EFC07E44AFC07B3
:10323000704710B50A23042209210B4859F7DAFB1D
:1032400004461B2020701420FFF7BCFD6070142082
:1032500060800420A0800020E080FF217431218163
:10326000204659F7E2FB10BD1B0D0000F8B50E46D5
:1032700009781846002425460B005BF791FF0906E4
:1032800009120915150C180F1B000B241AA512E0C2
:1032900007241CA50FE008241CA50CE007241EA58C
:1032A00009E00A241EA506E00D2420A503E006245B
:1032B00022A500E000BEA31C0146224859F79AFB54
:1032C0000746307838707C70002C04D0224629469E
:1032D000B81C5BF711FF384659F7A7FB0020F8BD73
:1032E000FEB51C46089B0126174D6F4668C713465E
:1032F000224600F048F8FEBD4469616C6F672053B8
:10330000656D69004441313435333100123456FF64
:10331000FE9ABCDE0000000001D200800500010022
:10332000312E302E302E302D4C450000765F362E5B
:10333000302E31342E31313134000000FFEEDDCC3F
:10334000BBAA0000031400001C4BFC07FFB583B0B0
:103350001E4E002401AFA0003558002D00D100BE44
:10336000009703A80FC8A847002809D0641C062CA2
:10337000F1D303AC0FCC00F09CFC002007B0F0BDF3
:1033800068460079FAE7F8B5089C9C46079D034615
:10339000002C19D0641E17D40D4FE600AE5B9E4280
:1033A00001D0BE420ED1E3005B195C68002C00D155
:1033B00000BE002C08D013466246A047069908704C
:1033C0000020F8BD641EE8D50120F8BD244BFC07A1
:1033D000FFFF0000052000070089000608D5012036
:1033E0008007006B000403D403480078C00701D0B5
:1033F000002070470120704754BAFC0770B510498F
:10340000049C4118052901D3012070BD00F00FF87C
:103410000025002807DB0B4A81005058002803D004
:103420005550804700E000BE2570002070BD044963
:103430004018052801D240B270470020C0437047B1
:10344000F2FBFFFFD47FFC07F8B5494D84002959F2
:10345000002912D101021E23042246480A3159F7DD
:10346000C9FA012606700746285107224249801CE6
:103470005BF742FE002038717E702859F8BD10B508
:103480000446FFF7E1FF59F7D0FA0020384AA100BF
:10349000505010BD70B5364D84000C3529590029A7
:1034A00001D0084670BD01021E23042231480A31B2
:1034B00059F7A0FA04210170285170BDFFB581B001
:1034C0001F460446FFF7E6FF294D0646A4000C35CB
:1034D00028591021801C5BF728FE2859039A801C6C
:1034E00002995BF709FE7770304659F79EFA002083
:1034F000285105B0F0BD70B51D4D84002435295903
:10350000002901D0084670BD01021E23042219487B
:103510000A3159F76FFA07210170012141702851D2
:1035200070BD10B50446FFF7E6FF59F77EFA104A62
:103530000020A1002432505010BD70B50546FFF7A1
:10354000DAFF04467A2045430C4808222D18287FCC
:103550002077688A608229462046143114305BF750
:10356000CBFDA91C1022A01C5BF7C6FD70BD00009E
:10357000E87FFC07140E00003C4BFC07607EFC0754
:103580007047704770B50D460446FFF723FF0028CB
:1035900006D06B482A460421201859F76AFD70BDF1
:1035A000FDF707F96648042208231146801E59F7E3
:1035B00021FA4560047059F738FA70BDF8B5614CCE
:1035C000069D06190024002E26D0012E0CD05F4F38
:1035D0005D4B3A46283A022E0AD05A49C91E411874
:1035E0000A2927D30120F8BD00F080F8287039E0BF
:1035F0000878461E092E0DD88000001F10589842EA
:103600002FD1B0003B5813504A6808781146FFF795
:10361000B9FF26E000BE24E04A68002A02D04C48E8
:10362000824200D300BE087845494018042159F76A
:1036300020FD16E04349891E4018C0B2411E0929E9
:10364000E8D88600B218803AD16F002909D0994293
:1036500007D0404B994204D0D467F219803AD4671E
:1036600088472C700020F8BD0A46010010B5384884
:1036700001D0814200D300BE0020344B283B84009F
:103680001C59002C04D0401C0A28F8DB002010BD77
:1036900084001A51401C0406240EF7D02046FFF780
:1036A00071FF204610BD70B50446401E09281BD886
:1036B0002648A10028380D18803DE86F002813D057
:1036C000244EB04210D01E480421201859F71BFD8B
:1036D0001B48042208231146401EEE6759F78AF959
:1036E000047059F7A2F970BD00BE70BD10B508781E
:1036F0000C46411E09291FD882001448121F283881
:103700008258144B9A4205D1002289004250283039
:10371000425012E0890040580B4988420DD10422E2
:1037200008231146064859F765F921780170616848
:10373000416059F77AF900E000BE002010BD00009A
:1037400003040000FFFBFFFF8335FC075880FC07E4
:10375000FCFF3F008135FC070021154A06E083424B
:1037600003D11C20414388187047491C1C234B433C
:10377000D35CFF2BF3D10020704710B5182304222F
:1037800009210C4859F736F904461B202070FD200A
:10379000FFF718FB6070FD2060800420A0800021EE
:1037A000E180E1602161A182204659F73EF910BD18
:1037B000444BFC071B0D00003EB51D46069B002434
:1037C00000931346019402942A46FFF7DCFD3EBDA8
:1037D00010B58A4201D35FF7C3FD10BD70B56248D2
:1037E00000224168D243002901D0114600E00121A6
:1037F000CB1741604C185D495B410D684E682C4306
:1038000033430C604B600369002B01D0144600E089
:103810000124E317250F1B012B4304610D682401CC
:103820004E682C4333430C604B600368002B01D07F
:10383000134600E0012303600D68DC174E682B433C
:1038400034430B604C60C368002B01D0144600E089
:103850000124E317650FDB002B43C4600D68E4000F
:103860004E682C4333430C604B608369002B01D0BE
:10387000144600E00124E317A50E9B012B4384614D
:103880000D68A4014E682C4333430C604B604369C0
:10389000002B01D0144600E00124E317E50E5B0184
:1038A0002B4344610D6864014E682C4333430C6024
:1038B0004B60436A002B00D101224262D017D40D25
:1038C000430223430C6850024A68204313430860B4
:1038D0004B6070BD38B5012003252D0201460090D4
:1038E0001D232A460020FDF750FD00241C232A46F4
:1038F000042120460094FDF748FD00211B232A46A1
:1039000008460094FDF741FD00221A2303211046CA
:103910000094FDF73AFD00220F2306211046009483
:10392000FDF733FD04232A46052100200094FDF70E
:103930002CFD00232A46092118460094FDF725FD99
:1039400038BD10B51B20FDF745FC00F001FE08490D
:103950000848FDF7B6FFFFF7BDFF07480121828940
:103960008A430A43828110BDF87CFC07F07CFC0787
:10397000484EFC07001100500003005010B5E34909
:10398000E3A05DF7BBF9FFF75DF810BDDF4910B5A7
:103990000D31DFA05DF7B2F9FFF76BF810BDFEB592
:1039A0000026DDA05DF7AAF9E14F00240C2060435A
:1039B000C519E878012813D1761CF6B22146DDA09E
:1039C0005DF79CF9E8796A79A9796B4607C32B7A88
:1039D0006A7AA97AD9A05DF791F9E0A05DF78EF92E
:1039E000641CE4B2032CE1D3002E02D0032E02D0DB
:1039F00004E0DBA000E0E3A05DF780F9F1A05DF753
:103A00007DF93046FEBD70B50C214843C8490024FD
:103A1000F74E45180C2060438119681D0622491D88
:103A20005BF78EFB002805D0641CE4B2032CF1D3B5
:103A3000002070BD0C204443A019807870BD3EB5B5
:103A4000ECA05DF75BF9BA4D00240C2060434019EF
:103A5000C178012926D143798279C17902930192F3
:103A60000091037A427A817AB4A05DF747F9EEA01B
:103A70005DF744F92046FFF7C6FFED494000095ABB
:103A8000ECA05DF73BF9EDA05DF738F92046FFF7B4
:103A9000BAFFEE494000095AE6A05DF72FF9AFA042
:103AA0005DF72CF9641CE4B2032CCED33EBD70B597
:103AB0000C2148439E490024CD4E45180C206043FC
:103AC0008119681D0622491D5BF73AFB002810D0BA
:103AD000641CE4B2032CF1D300240C206043801951
:103AE0008078FF280CD0641CE4B2032CF5D3FF20AF
:103AF00070BD0C20012160438019C170847006E004
:103B00000C206043294680190C225BF7F5FA204609
:103B100070BD70B5522304220921CD4858F76AFFC1
:103B200004460D20207000216170CA48A080E0800A
:103B30000720207201206072A172E1722B222046C0
:103B400011550C300246C4A30921401E00F0E3F9D0
:103B5000204658F76AFF002425022D1D284659F7F4
:103B60008FF9032803D00221284659F774F9641C01
:103B7000E4B2032CF0D3BBA05DF7C0F8FFF70FFF52
:103B800070BD70B50C460546FFF791FFFFF7C1FF0A
:103B900021462846FEF75FFF70BD7FB504460078DA
:103BA000FFF731FF0C214843914D00214019C170AE
:103BB0002078FFF728FF0C2148434019FF2181702E
:103BC00020880C2250435A4AA17880184279837980
:103BD000C4790094019302920391037A427A817A24
:103BE000A7485DF78BF87FBDF8B50E461C0A20028A
:103BF000D1B20843009059F743F9022802D000BE21
:103C00000020F8BD032C00D300BE0C2027464743FC
:103C100047483D18AC70FF2C1AD00121E9700321F0
:103C2000009859F718F942483188C153707A2871C1
:103C30003146681D06220A315BF75EFA7A20914907
:103C4000604340186030017E01222046FFF79FF854
:103C500031462046FFF795FFD2E770B51C0A2502D2
:103C6000D0B205430E46284659F70AF9032802D078
:103C700000BE002070BD0C2044432D48FF212018B9
:103C800081700021C1700221284659F7E4F83046BE
:103C9000FFF783FFEDE710B5002420020121001D8E
:103CA00059F7D9F8641CE4B2032CF6D3FEF766FF8B
:103CB00010BD70B5744C1D46031BA04221D021DC01
:103CC000724BC3181DD0724CE3421AD10C4649887E
:103CD000152918D0192917D06B4808232946001F29
:103CE00058F788FE21780C225143114A89188978A7
:103CF000017061884180002181808021817158F7A5
:103D000094FE70BDC6E001E1FBE00000604EFC07E0
:103D10000A0D257300000000436F6E6E65637465C5
:103D20006420446576696365733A200A0D000000DB
:103D3000F47DFC075B25645D2000000025303278AF
:103D40003A253032783A253032783A253032783A8E
:103D5000253032783A253032780000000A0D000014
:103D60004E6F2063757272656E746C7920636F6E2E
:103D70006E65637465642064657669636573200AA3
:103D80000D0000005065726970686572616C206991
:103D90007320636F6E6E6563746564207769746801
:103DA00020746865206D6178696D756D206E756D24
:103DB000626572206F662063656E7472616C732039
:103DC0000A0D00002A2A2A2A2A2A2A2A2A2A2A2AE4
:103DD0002A2A2A2A2A2A2A2A2A2A2A2A2A2A2A2A43
:103DE0002A2A2A2A2A2A2A2A2A2A2A2A200A0D00A4
:103DF0008080FC0762645F61646472657373202075
:103E000020202020202020526561645F4368617279
:103E100020202020202020202057726974655F43D5
:103E2000686172200A0D00002020202000000000A0
:103E3000AA80FC07253032780000000020202020D6
:103E4000202020202020202020200000B080FC07FF
:103E50000D0D00004C0400004D554C54495F434F7C
:103E60004E000000446576696365206973204164F3
:103E7000766572746973696E67200A0D0000000030
:103E8000FC4EFC07607EFC0709FD0000EFF1FFFF20
:103E90000D11FFFF012B09D0042B00D031E74B8817
:103EA000102B2B462AD000F0DBF82AE74B880D2B8D
:103EB0001CD009DC022B11D0052B13D0092BF4D117
:103EC0002B4600F0B4F81CE7102B13D0112B0DD0AB
:103ED000152BEAD12B4600F0DCF812E72B4600F058
:103EE00050F80EE72B4600F067F80AE72B4600F083
:103EF0007AF806E72B4600F099F802E700F098F808
:103F0000FFE62B46214600F0D4F8FAE62B46214680
:103F100000F0FDF8F5E670B50646481C1070092063
:103F200015460C46507022461946A81C5BF7E4F86B
:103F30003078A41C00193070E3E6000010B5FD20B5
:103F40003EF741FC014608230422834858F752FDFE
:103F5000824C2188491C21800821418002218180D6
:103F6000012141702188C18058F75FFD042058F776
:103F700087FF032804D17A496420FFF775FB60802E
:103F800010BD38B50025684605708A88891D5BF725
:103F9000B3F868460078714C002805D07049642059
:103FA000FFF762FB608038BD60880028FBD0C0B29C
:103FB000FFF779FB658038BD08B5002268460270BE
:103FC0008A88891D5BF798F868460078012805D033
:103FD000002802D10921FDF7A2F908BD092100201E
:103FE000FDF7B8F908BD10B5887900281DD01C0A66
:103FF000FD203EF7E8FB0146574808230422801CB9
:1040000058F7F8FC0C214C435649544A61188978FA
:1040100001700C2141800221818091880B0A8371FB
:10402000C171491C918058F700FD10BD7047704761
:1040300010B518460C46014647480823083058F783
:10404000D9FC21780C225143464A8918897801709D
:104050006188418000218180817158F7E6FC10BDA4
:1040600010B518460C4601463B480823083058F75F
:10407000C1FC21780C2251433A4A89188978017091
:1040800061884180002181800321817158F7CDFC36
:1040900010BD10B50C460878FFF7B5FC2F4940005D
:1040A0000C314018A288A11D5BF726F8FFF7C7FC6A
:1040B00010BD70B50D460878FFF7A5FC274E4000EF
:1040C000B61D80190188491C0180FFF7B8FCFD204E
:1040D0003EF779FB014620480A230422401E58F788
:1040E00089FC044628782070688860800220A080BF
:1040F0000020A0712878FFF786FC40008119A28873
:10410000E01D5AF7F9FF204658F78FFC70BD70B5D7
:104110000D46FD203EF757FB01460F480A230422B7
:10412000401E58F767FC0446287820706888608035
:104130000220A0800020A0712878FFF764FC0749C6
:1041400040000C314118A288E01D5AF7D5FF2046E7
:1041500058F76BFC70BD000006FD0000A480FC0752
:104160003D3FFC07F47DFC07F8B50746012000231E
:10417000024600901946032045F744F904460221FF
:1041800080300170F64DF5482A6843881146FF31AA
:10419000F7310B8680884886F248066A0123DB06E1
:1041A0009E431E430662FF320020FF3238325082A7
:1041B0009082D0821D200882EB484884EB48C88258
:1041C000EB48088300204882384645F75BFC0146EF
:1041D0002868FF30F730C28B920992010A43C283EC
:1041E000E448416800208847002C02D0204644F76C
:1041F000F2FC2046F8BDFFB58BB0064616980027A6
:10420000022821D00D9801881498814278D37188B2
:10421000084640383F2802D8159851F7EFFC0C9813
:10422000361D0088149A80190E995AF765FF0C986C
:104230000188149808180C9908800D980188149822
:10424000081A0D9908805CE100200E9D079069789E
:104250002C78090221433180E978AC7809022143A6
:1042600071808C46403904242D1D024603468E463B
:10427000402900D32878614604291FD0052914D08D
:10428000062918D070463F283DD8159851F7B6FC3E
:104290000006000E04D0B848008D0006C00F30D0D4
:1042A00002230120B54A002712E0697800290FD0C7
:1042B000B34A17230CE0B34A0F2309E0522802D077
:1042C000D22802D002E0142000E01520AE4A1F23BD
:1042D000002A1AD0984218D2800010580490002862
:1042E00013D000200890059070884038402803D3F0
:1042F0002878052430716D1C701D00900498B5E07D
:10430000FEE03027F0E03327EEE07088042872D119
:104310000627E9E0522862D00CDC4B283FD004DCB1
:1043200041286AD0422858D111E04C2820D050288A
:1043300053D140E0632830D004DC572818D06128DE
:104340004BD19BE06C2864D0772846D109E00098D7
:10435000297801700098641C401CA4B26D1C009068
:1043600081E00498401C04900178089881427AD139
:104370000098A41C401C41084900881C00906878E3
:104380002A780002104308800599AD1CA4B20029C8
:1043900069D008900020059065E00120FBE710221D
:1043A000294600985AF7A8FE009810341030A4B29D
:1043B0001035009057E02046403014990390884211
:1043C0000BD84022294600985AF796FE00984030B4
:1043D00000900398403584B245E0342743E008223A
:1043E000294600985AF788FE009808340830A4B28D
:1043F0000835009037E068E0FFE70622294600987C
:104400005AF77AFE0098A41D801DA4B2AD1D00903D
:1044100029E01498001B80B203903088001B001D17
:1044200081B2012007900498401C04900098401C21
:104430004008400000900498007857281CD042287B
:10444000CBD100980170090A417000982946801C60
:104450000090039A5AF750FE03980399201884B2EB
:104460000098401800900498401C049000780028A0
:104470001ED0002F17D01BE04908E2E71498001B5C
:1044800081B200980391401C400840000090012038
:104490000A460790294600985AF72EFE039960189D
:1044A00084B20098DDE70D990988A14200D331E775
:1044B0000D980088A04208D304990978002904D1F6
:1044C0000799002903D1A04201D034270CE00D99AF
:1044D000001B08800C9801880098801B001F08189A
:1044E0000C99002F08800CD07088042809D0062869
:1044F00007D04038402804D30E984079707100E00E
:10450000342738460FB0F0BDFFB581B01F461646C0
:104510000C46104658F7B4FC00257F2802D02189AC
:10452000062909D03B4632462146019851F7F9FE4B
:104530000546284605B0F0BDC00601D50225F8E7BE
:1045400020780028F5D1300AA11D3EF782F8F0E767
:104550000E490020086070477047000030BCFC071F
:104560004CB9FC07C0000040108000002941000049
:104570007671000058BFFC0748BEFC073803F207FD
:104580004003F2079C03F207D803F207000008403B
:10459000064C0125064E05E0E36807CC2B430C3C96
:1045A00098471034B442F7D3FBF7B6FD484FFC07E9
:1045B000684FFC07F8B5040C8BB2264682B25E4306
:1045C0000D0C1046370C58433604801900217941F0
:1045D00016466E43370C36048019794126466E43E1
:1045E0008919F8BD02E008C8121F08C1002AFAD1D3
:1045F00070477047002001E001C1121F002AFBD163
:1046000070470000704FFC074D7CFC074E7CFC0798
:10461000487CFC074C7CFC075D03FC077B03FC0724
:104620004707FC078F07FC07F401010070CAEA8006
:10463000D0070640643200002846FC07807CFC0757
:104640007D21FC071B22FC0793DEF007F1DEF0075B
:10465000F9DEF00749DFF00761DFF00777DFF007E9
:1046600099DFF00719E3F007BDE5F007FDE3F00778
:104670001DE4F0073DE4F0077BE4F0078BE4F0076E
:10468000F5F9F007B1F7F007CFF7F007EBF7F00710
:1046900005F8F00719F8F00797F8F007AFF8F007FA
:1046A000DFCDF10767D0F107DBB9F007CD0DF207D9
:1046B000B10EF207AD0EF207A90EF2078D21F00739
:1046C000AD06FC07211DFC07010AFC073309FC07A6
:1046D0001D09FC07B57EF007837DF0076941FC07E3
:1046E000599EF107634CF107A529FC07D110F20789
:1046F000052AFC07B111F2074112F2077912F207FD
:1047000000000000A706FC07A906FC07B9C6F007D1
:10471000D592F107F741FC075F9DF1075F9CF10718
:104720000945FC07EB72F107B922F1076B04F107A9
:104730007D06FC072BA4F007F1D2F0075FBDF00760
:10474000D5BDF00785BEF007DB2DF007752EF0070D
:104750001581F007DF7FF0070937F0070000000040
:104760009706FC079F06FC077F06FC07F3C3F107CB
:1047700075C4F107AB06FC077322FC0700000000BC
:104780000000000000000000000000000000000029
:104790000000000000000000000000000000000019
:1047A0000000000000000000000000000000000009
:1047B00000000000000000000000000005000000F4
:1047C0000057FC0700080000C484FC070408000030
:1047D000B880FC0700040000D48CFC07900B00009C
:1047E0002003000000A60E0004000000D20000001C
:1047F000320000003C000000010000000100000049
:10480000020000000200000004000000030000009D
:10481000060000000000000002000000020000008E
:104820000000000000000000030000000300000082
:104830000500000005000000060000000A0000005E
:104840000A000000C8000000B80B000002000000D1
:10485000B80B0000B80B000010000000D4010000ED
:10486000CC010000700200006A000000040000009B
:1048700003000000200000000A000000010000000A
:10488000E20400008A020000DC050000AF00000026
:104890003846FC07000000009049FC07084AFC0766
:1048A000000000000446FC070104000000000000B6
:1048B00000000000000000003F00000000000000B9
:1048C0002000800000C000000000840000002822BA
:1048D000000000000000040000F7FFFF7F00000060
:1048E00030F0FF0F00000000000400000000000096
:1048F00000000000000000000000000000000000B8
:10490000FF0F0000010099090300990907009909A8
:104910000F0099091F1099092F2099095F519909D2
:10492000080004900000000000000000030005D013
:104930008B0035F010005CF0000010B0000018B0E3
:1049400000001AB0030051F0000038B000003AB087
:10495000000064B0000066B0000022B0000024B087
:10496000010005D0000000000A0000800803049048
:10497000000004F0030006D0000000000A000080E0
:1049800008030490000004F0030006D000000000BB
:10499000244CFC07284CFC072C4CFC075937FC071F
:1049A000130C00004B29F207150C00007928FC07B6
:1049B000170C0000572BF207000C00002328F20709
:1049C00006FD00005728F20703FD00003728F20714
:1049D00008FD0000B328F2070EFD00000F29F207C2
:1049E00005FD0000992BF207A049FC070900000013
:1049F00014000000ED14F207FD0000002126F2076C
:104A0000FF00000000000000F049FC07B07DFC073B
:104A10000200000000004C044C04070100010203E6
:104A200004050600FF000000000000000000000078
:104A3000140000003332FC0700000000FF000000FB
:104A4000000000000000000000000000DC4AFC073D
:104A50005C7EFC0704000300000000000000000072
:104A600000000000010D0000292EFC07000D0000D1
:104A7000512EFC07000E0000172FFC07010E00004E
:104A8000E93BFC07030E00005B3CFC070A0E00003C
:104A90005F2FFC070C0E00000930FC071C0D000006
:104AA0003D30FC07100D00000130FC070F0E000028
:104AB0006130FC072C0E00008730FC07120C000050
:104AC0008B30FC07080E00008F30FC071B0E000027
:104AD0000530FC07FFFF00004D33FC07D44AFC07FC
:104AE00001000000130E0000FD30FC07150E000051
:104AF0004131FC07170E0000E931FC07190E0000D8
:104B0000ED31FC07150D00000132FC07210D0000FE
:104B10000532FC07220D00000932FC0702140000D8
:104B20006D32FC079330FC07BD35FC07FD33FC07F5
:104B30000D32FC07E132FC07B937FC070300001017
:104B400000010000FD0000002C4CFC071B000000D1
:104B50007B37FC07000000000000000000000000A0
:104B6000FF00000000000000000000000000000046
:104B7000000000000000000000000000595A08E496
:104B8000862A9E8FE911BC7C9843421820EE8D0C3A
:104B9000E1F04A0CB325DC536A68862D4F43313C63
:104BA000939242E6A876FA3BEFB4875A17B9679812
:104BB0004C664C01963331B19159001528D5E1C1AD
:104BC000E1C54729B55765C3BA47159E8C09E0D1A1
:104BD000815442408E4FD2B377E32A77595A08E482
:104BE000862A9E8FE911BC7C7C46421820EE8D0CF3
:104BF000E1F04A0CB325DC536A68862C595A08E464
:104C0000862A9E08E911BC7CD047421817B96798DC
:104C10004C664C01963331B1915900140028032899
:104C2000022901290013171B030000001C4CFC077C
:104C30001000000001000000100010007C4BFC0779
:104C40001E4CFC07020000000100000000000000F4
:104C5000000000008C4BFC07100000000800020060
:104C60000100000000000000224CFC0702000000D0
:104C7000010000000D000D00EC4EFC071E4CFC076F
:104C80000200000001000000000000000000000021
:104C90009C4BFC0710000000088000000180000011
:104CA00000000000224CFC07020000000100000090
:104CB00009000900D44EFC071E4CFC07020000004E
:104CC000010000000000000000000000AC4BFC07E9
:104CD00010000000010200000200000000000000BF
:104CE000204CFC0702000000090002000200000046
:104CF00000000000224CFC07020000000100000040
:104D00000B000B00B84EFC071E4CFC070200000015
:104D1000010000000000000000000000BC4BFC0788
:104D2000100000004100000014000000000000001E
:104D3000204CFC07020000000900020002000000F5
:104D400000000000224CFC070200000001000000EF
:104D50000C000C00C44EFC071E4CFC0702000000B7
:104D6000010000000000000000000000CC4BFC0728
:104D700010000000090202003200000000000000E4
:104D8000204CFC07020000000900020002000000A5
:104D900000000000224CFC0702000000010000009F
:104DA0000A000A00E04EFC071C4CFC071000000043
:104DB0000100000010001000DC4BFC071E4CFC073B
:104DC00002000000010000000000000000000000E0
:104DD000EC4BFC07100000000900020002800000FC
:104DE00000000000224CFC0702000000010000004F
:104DF00011001100A44EFC071C4CFC071000000021
:104E00000100000010001000FC4BFC071E4CFC07CA
:104E1000020000000100000000000000000000008F
:104E20000C4CFC0710000000010000000280000094
:104E300000000000224CFC070200000001000000FE
:104E400010001000904EFC070B08008300000000CB
:104E50000200000000000000000000000000000050
:104E6000757365725F6F6E5F696E697400757365E7
:104E7000725F6F6E5F7365745F6465765F636F6E9C
:104E80006669675F636F6D706C6574650000000034
:104E900052656164206D652028617070206462290C
:104EA000000000005772697465206D6520286170EC
:104EB00070206462290000004144432056616C75F3
:104EC00065203100496E64696361746561626C6577
:104ED000000000004C4544205374617465000000DC
:104EE0004C6F6E672056616C75650000436F6E7481
:104EF000726F6C20506F696E7400000044657669B3
:104F0000636520253032783A253032783A253032C0
:104F1000783A253032783A253032783A253032786E
:104F20002068617320646973636F6E6E6563746576
:104F3000642064756520746F20726561736F6E20E4
:104F4000253032780A0D00006C4FFC07704FFC07CB
:104F500090070000F445FC07487CFC07487CFC07F0
:0C4F600070040000F445FC070E00000087
:0400000507FC0111E2
:00000001FF
