:0200000407FCF7
:100000007859FC07C101FC07C901FC07E101FC07A5
:1000100000000000000000000000000000000000E0
:10002000000000000000000000000000F901FC07D3
:100030000000000000000000FB01FC07A919FC07FC
:10004000B51FFC07F31FFC07A526F0073D1AFC07A8
:10005000E51EFC07FF01FC070918FC07FF01FC0770
:10006000FF01FC07FF01FC075F14FC076314FC079A
:100070006714FC076B14FC076F14FC07FF01FC07F7
:10008000A914FC07FF01FC07FF01FC07FF01FC07A7
:10009000FF01FC07FF01FC07FF01FC07FF01FC0754
:0800A000000000008E070E00B5
:0200000407FCF7
:100110000448854604F074FB004800478903FC0747
:10012000C046C0467859FC0710B520480189C90867
:10013000C9000181008A1E4CC00715D0608A800763
:10014000800F012810D91B481949428820310A81A3
:1001500082888A80C2880A80618AFF228132008870
:100160009143C001014361821349062008800F209A
:1001700000F00EF8012000F00BF8002000F008F865
:1001800060890421884360810020208062B610BD10
:10019000002809DBC106C90E012088400749086014
:1001A000BFF34F8FBFF36F8F704700000003005005
:1001B00000000050A000FC070034005080E100E087
:1001C0000F4880470F48004704207146084203D07B
:1001D000EFF309800C490847EFF308800A49084704
:1001E00004207146084203D0EFF30980074908470D
:1001F000EFF3088005490847FEE7FEE7FEE7FEE764
:100200002901FC071101FC079D02FC071102FC07F4
:1002100010B504461E484089C00508D51B2000F0D3
:10022000DFFF1B4860300188012211430180052255
:1002300012071088518A0007800FFF2381339943EA
:10024000C00101435182134920680860606848601A
:10025000A0688860E068C8602069086160694861DA
:10026000A0698861E069C8610C620B48836A4B62CF
:10027000C36A8B62036BCB62C36B0B63436B4B63D1
:10028000806B8863908AC00601D500BE10BDFEE772
:10029000200000500090FC0700ED00E070B505253F
:1002A00004462D07288A04210843288228894021F2
:1002B0000843288124480126066024490820088034
:1002C00023484089C00507D51B2000F089FF20483E
:1002D00060300188314301802888698A0007800FD7
:1002E000FF2281329143C00101436982194920688C
:1002F000086160684861A0688861E068C861206939
:10030000086260694862A0698862E069C8620C633B
:100310001148826A4A63C26A8A63026BCA63C26B0B
:100320000C4940310A60426B4A60806B8860A88A41
:10033000C00608D500BE688A012180088000C90374
:100340000843688270BDFEE780E200E000330050A1
:10035000200000504090FC0700ED00E070B5094E11
:100360000D4604461146304601F09EFBAAB2012319
:100370002146304601F00CFC70BD10B5014801F07B
:100380003FFC10BD0011005008B500F0C1F800F0AE
:100390006DFB01250026052424070EE0284600F009
:1003A00027FA0421684600964DF7C8FB002801D0C3
:1003B00000F0E1FA60F7B4FC0BE02089000608D5F4
:1003C00001208007006B000403D499480078C0071F
:1003D0000BD072B601F0A0FE042810D0022815D070
:1003E000032813D001281ED01EE05DF706F8002078
:1003F00000F0FEF98F4800780428DBD1CEE78E4864
:100400000078012801D0032000E0022000F04AF823
:10041000A08AC00602D589490820088030BFA08A7A
:1004200000F004F800E030BF62B6C6E710B500F097
:100430007DF9834902280CD105200007408AC005B8
:10044000820F804802800A8942808A8882800A88D6
:10045000C28048896021C00500280ADB78486030E6
:100460000088C00705D0764A2032508A8843203061
:100470005082754882888A43203282807348C078CF
:10048000002807D07248006801898AB241680320B9
:100490005CF714F903F055FB6E480169042291439F
:1004A000016110BD38B56946052408702407218A0A
:1004B000054604221143218200F063F86048418917
:1004C0006022C905002905DB5D4B2033598A914321
:1004D000403159825C498B88934340338B80022D95
:1004E00001D0032D13D18188490849008180002063
:1004F00000900099491C00911429FADB6189890850
:100500008900491C618161894906FCD5608038BD3C
:10051000F0B55148514905230127514A884201D37A
:100520001C4604E0904201D33C4600E000244D4DBF
:100530004D4E4648AD194D4E8470AD190126B60397
:100540004560B54201D8142500E000252540484CFF
:1005500045708C4213D2474B2546EB18944205D385
:100560008B4201D211230AE03B4608E0934201D2BC
:10057000142304E08B4201D2102300E00023037017
:10058000F0BDF8B5022801D0032848D1314A1369DB
:1005900004210B4313612C4A203A93895B085B00CA
:1005A000938105241022294E240702287578608A39
:1005B00036D010436082608A084360827068C01C35
:1005C000870801F019FC608A1021084360822A48DC
:1005D0007F1E0762EFF31080012181F310882188CC
:1005E000802291432180002800D0012080F31088D0
:1005F00013484089C0050AD501F0ECFB0B2000F040
:10060000EFFD0F4860300188012211430180032073
:100610005CF77AF8002806D00120F0702583F8BD39
:1006200090436082F3E70020F07030780540F5E7F2
:1006300054BAFC07947DFC07B4BAFC0700330050A1
:1006400020000050A000FC0720030050507CFC0755
:1006500058B9FC0700ED00E0487CFC070070FC077F
:100660000040FC071001FC07D4500000000004F813
:100670007859FC070C0800000000F407704770B5BB
:100680000D46002442F73BF92855641CE4B2202CA7
:10069000F8D3002070BD10B55EF71CFD10BD10B57D
:1006A0005EF721FD10BD70477047704706498842CC
:1006B00000D000BE05210907488A01228008800079
:1006C000D203104348827047111111114448017838
:1006D000002902D0802141707047424900200870F3
:1006E0004149C87070473E490A78002A03D0002863
:1006F0000CD002200BE0002801D0022000E00120F5
:100700003849087038490120C8707047012080308E
:1007100048707047002805D0012804D0022804D171
:100720000120E0E7D2E70020FBE770472D490020D9
:100730000978002904D0012903D0022900D1022020
:1007400070470120704726488178002904D0491E4F
:100750000906090E817019D142780021002A04D0BF
:100760009207920F0270417004E00278002A01D0D3
:10077000521E02701206120E017007D0012A03D019
:10078000022A03D10120AEE70020FCE7704700B544
:10079000134A9078401C90701078002805D1FFF71C
:1007A000C5FF431CFFF792FF137000BD0C48C078D3
:1007B00070470020EFF31081012282F31088052298
:1007C00012071289120605D40848028901231A4328
:1007D00002811846002900D0012181F3108870475A
:1007E000587CFC07B4BAFC0754BAFC07003300502D
:1007F00010B5FE4CA178002921D0FD49002803D076
:1008000008884007FCD402E00888400717D4CA884B
:10081000888811040A180020A070F648002350436D
:10082000800B401C4008E0611F204006492162F710
:1008300017FEE162A06264214843000CA06110BD74
:10084000EB49488008880322104308800888042266
:1008500010430880E54901208870704770B5052075
:1008600000070189302291430181018980221143CF
:1008700001810189082211430181DF490A88520858
:1008800052000A80438918229343438104894023FC
:100890001C430481048A0425AC430482848AA4078F
:1008A000FCD5D24DAA246C61CD8801240F263602D6
:1008B000B5430B263602AD19CD80CD882543CD80BA
:1008C00044899443083444814A88520852004A803B
:1008D00001899943018101208007016882159143B4
:1008E0000160C64801683F225202914342148918B0
:1008F0000160016802031143016070BD10B5BB497E
:100900000122D203C969904205D303F08BFF890508
:10091000800A084310BD4843800A10BDEEE710B5B9
:10092000B24989694843B649401849005EF76AFBF5
:1009300010BDF4E770B500F0DCFB0446FFF7F9FFEB
:10094000AA4D288120463C30FFF7F3FFAD49001D3A
:1009500088602A891018C01DAB4A48601278022AA4
:1009600001D111304860FFF7D9FFA849401880B283
:100970005CF7D4FD70BDF0B5A54985B00120C86312
:10098000C86B0028FCD101208007C069974C216901
:10099000884201D2002121611922411AD2019142DB
:1009A0002AD320619B48018803914188029187885E
:1009B000C688994903C900900191684600F067FE16
:1009C00000F03DFF0546012020567F280CD0281A54
:1009D00040B2002801DA404240B2082805DBE06856
:1009E000401CE06001F055FD65708A480299418025
:1009F0008780C6800399018005B0F0BD0020704754
:100A000010B5864900200860FFF794FF0120800799
:100A1000016B49004908016310BD08B5734988801E
:100A200075498A88520852008A80002200920099F3
:100A3000491C00911429FADB052109074B899B0801
:100A40009B005B1C4B814B895B06FCD54880E120F9
:100A5000C0000092521C00928242FBDB4889800851
:100A60008000488148890006FCD508BDF8B56C486F
:100A70000826068000F0FAFB6A4CA18868460180CF
:100A80000088C046C04668460088042398433ED08C
:100A90000020A0806348203001880F229202114379
:100AA0000180554A2032518A314351825249603186
:100AB0000C880625AC430C800588CC0125430580B5
:100AC000558AA5435582948A0E25AC43A41D948271
:100AD000494C6589EF05544D0F881DD5AF4315016D
:100AE0007D190D800D880F022D052D0DED190D803E
:100AF00005883543058005889D4305800D886D0870
:100B00006D000D8001884025A943018020E0208AE6
:100B1000400840002082BDE7AF4303256D027D19E8
:100B20000D800D880F273F033D430D800588B54399
:100B3000058005889D430580958A03267602B54386
:100B400095820D88012635430D8061894907FCD5C2
:100B50000188032529430180558A60218D43203572
:100B6000558282888A432032828001201F4E0525CB
:100B700030702D07E88AC02188438030E882208ABF
:100B8000000A00022082208B1C2188430830208329
:100B900026480380A8880121C9028843A88048010B
:100BA0002349086001F028F9022001F0EAF8214CFD
:100BB0002069C0B2AA286AD0012029880C2291435A
:100BC0008000014329800948203000F0BBFA00F082
:100BD0001DF900F08BFA00285BD000F087FAFFF7D0
:100BE0001CFF7F207070A06A064925E0607CFC072E
:100BF00000160050111101002000005000020040BA
:100C000020A10700E852FC07B4BAFC07E204000088
:100C1000C000004000150050184BFC07A8B9FC07A5
:100C20000033005000030050000F0000000200508D
:100C300080E200E0C07FF807086001F00DF900F0E5
:100C400035F802F07EFF012041F75FFEFFF706FE58
:100C50001448006841F7FEFA13490020C870087173
:100C600001208007016882151143016000F05AFEDF
:100C70001E20FFF7E5FD0120FFF7BAFDFFF726FD77
:100C800002F041F902F07AFFFFF7BAFEF8BD032047
:100C900093E72069C0B2AA2801D06E209FE7802088
:100CA0009DE700004CB9FC0754BAFC0770B5364804
:100CB000344D006835492C6892B0884205D0052231
:100CC0005202334933485EF717FA334E3349304600
:100CD0005EF72BFA0721324809025EF726FA2C60EC
:100CE00003F072FD30492F4808603048002404802A
:100CF00030222F492F485EF7FFF92A4908228868D9
:100D0000C9681191109010A92B485EF7F5F9254993
:100D10004022103168465EF7EFF9402269462748C5
:100D20005EF7EAF9264828490470264808602849F1
:100D30002648086028492748086028490A20087082
:100D40002748284904703220087027490920086084
:100D500026490320086026490B20086025490C20FD
:100D6000086025490D20086024490E200860FF20F6
:100D7000234907300860234908602348066012B001
:100D800070BD00005CBAFC079CB8FC076587341294
:100D900000B0FC07B480FC07009CFC07D01A0000E0
:100DA00000B9FC07204BFC0760BAFC07907CFC07ED
:100DB0007CFCF10700BAFC07DAB9FC07B0BCFC0701
:100DC000FDB9FC07603FF20750B9FC07B048FC07CB
:100DD00054B9FC072C4AFC0758B9FC07B0B9FC070A
:100DE000B1B9FC07D9B9FC075CB9FC0760B9FC07CD
:100DF00064B9FC0768B9FC076CB9FC0770B9FC075B
:100E000048B9FC0744B9FC074CB9FC07F0B5C14C24
:100E100089B00020207660760390BF480169BF4802
:100E2000814202D0C01709B0F0BDBB4F0425403F3E
:100E3000E819016D0191090F092910D001220198CB
:100E4000920790427AD3B64A904277D8B54908358E
:100E5000884274D1E819C16CB3484180A6E0019A78
:100E600001991204C9B2160E112935D007DC0B0006
:100E70005EF796F9087474747474740D1F741239E3
:100E80000B005EF78DF9063A4B5D6B60656B207E5B
:100E9000B200C1009F48403808189F4914316918B2
:100EA0005EF72AF9207E8019C0B22076042854D833
:100EB00054E0607EB200C100964840380818964958
:100EC0001030143169185EF717F9607E8019C0B2CE
:100ED00060760C2841D841E0416D89B20291406DA5
:100EE000000C01460490029800F006F9A0800499D5
:100EF000029800F009F9E08030E0416D89B2049178
:100F0000406D000C01460290049800F0F5F8208135
:100F10000299049800F0F8F860811FE0039805A991
:100F2000800040187C49B200143169185EF7E4F87B
:100F300003988019039002280FD80FE02BE010E0EF
:100F4000406D60820AE0416D72484038016405E0FE
:100F5000406D0004000CA08200D100BEB000451915
:100F60004AE070492639884203D1E819C06CE08212
:100F70001CE06C49091F884204D1E819C06C6A4919
:100F8000888013E06749083988420FD1E819C06C9E
:100F90006549C8800AE007292ED008292CD00A29E3
:100FA0002AD0062928D0401C07D000BE5A4810304D
:100FB00029185E48814200D23AE70598A081069838
:100FC000050C86B22946304600F096F8E0812946A5
:100FD000304600F099F82082207EC10700D000BE84
:100FE00040082076607EC10700D000BE40086076D1
:100FF000A18A002902D004E02D1DD7E77D21C90078
:10100000A182042800D000BE00200CE7F8B5414CB6
:101010000025403C3F4F24E0EE00A059444988425F
:101020001AD1301900904068800A400414D001F0B1
:1010300015FD092810D900980322406812020146C4
:1010400009041040890E0843A159086000983949E5
:101050004068C001C00D02E030194068A159086025
:101060006D1C387EA842D7DCF8BDF8B5294C0025A8
:10107000403C2746403717E0E80006192E48316902
:1010800081420DD101F0EAFC092809D92B49706988
:10109000084028490988490408433169086002E08A
:1010A0003069716901606D1C787EA842E4DCF8BD8E
:1010B00018490420085E704716490620085E7047EC
:1010C00014490820085E704712490A20085E7047DC
:1010D0001048808970470F490E20085E70470D49FF
:1010E0001020085E70470B48408A70470948C08A44
:1010F00070470848808A7047081A0104890C401814
:101100000F49401800B27047C2008018401A00040E
:10111000C0147047D47CFC07C07EF807A5A5A5A520
:101120004C42005028000050A000FC07C07FF80788
:101130004C100040F452FC0738300040FFFF01FC27
:101140000100FFFF10B5062201495DF7D5FF10BD74
:10115000D47FF80705200007018830221143018061
:101160000188032211430180704705200007018890
:1011700030229143018001888908890001807047ED
:1011800036490A8B03231B029A43000202430A8357
:10119000704733498A8A03235B029A43C3085B0280
:1011A0001A438A828A8A0723DB0240079A43800C0B
:1011B00002438A822A48403001880122114301807B
:1011C0002748203841894907FCD570472448818A3F
:1011D000808A4905890F8004400FC90008187047AC
:1011E0001F498A8A03235B029A43C3085B021A439E
:1011F0008A828A8A0723DB0240079A43800C0243D3
:101200008A82704710B50446154820384089C005C9
:1012100002D40120C04310BD00F0D9FD002806D043
:10122000FFF7D4FFA04202D90020C04310BD0C48F4
:10123000408AC00408D40B480088000704D4082C56
:1012400002D20420C04310BD074801210470417040
:101250002046FFF79EFF002010BD00002030005008
:101260004000005020030050F852FC07F0B585B054
:101270000026884C029602983021484300960019B7
:101280000099890046500099491C00910C29F7DB10
:101290000298401C02900128EDDB02F09FFB7D4D7F
:1012A0000021083D29606960012702960020009016
:1012B000029979484900465A00993846884080B2D8
:1012C00006421DD002983021484300990019890038
:1012D0004058411C1BD000280DD0C117009A5DF763
:1012E0004FFF029A12015DF74BFF2A686B681043AB
:1012F0001943286069600098401C00900C28DBDBD3
:101300000298401C02900128D0DB05B0F0BD00BE61
:10131000E3E7F8B5164605460C460A461F46012087
:1013200000215DF72DFF2A015DF72AFF594B083B8D
:101330001A685B6810401940084300D100BE68017C
:1013400056494018610008183E43C680F8BD70B584
:1013500005460C460A46012000215DF711FF2A01CF
:101360005DF70EFF4B4A083A136852681840114067
:10137000084300D100BE6801484940180121A1403E
:10138000818070BD70B505460C460A4601200021DB
:101390005DF7F6FE2A015DF7F3FE3E4A083A136850
:1013A000526818401140084300D100BE68013B4913
:1013B00040180121A140418070BDFFB581B00C46AD
:1013C00005460A461F46012000210A9E5DF7D8FE09
:1013D0002A015DF7D5FE2F4B083B1A685B68104069
:1013E0001940084300D100BE002E2146284602D0F5
:1013F000FFF7C8FF01E0FFF7AAFF3B46214628465A
:10140000039AFFF786FF80E770B5012421460A386A
:1014100081400D4688B200F02CF884402048C189F4
:10142000A9430C43C48170BD10B504460A38042892
:101430000BD82046FFF7E8FF1649A00030314018CE
:101440008038806D002801D0804710BD002CFCDB67
:10145000E106C90E012088401249086010BD0A202B
:10146000E2E70B20E0E70C20DEE70D20DCE70E20B2
:10147000DAE700280BD0411E4840C003010C0020D1
:1014800002E04908401C80B20029FAD170471020C0
:1014900070470000F87CFC07704BFC0700300050E0
:1014A0000014005080E200E010B5FFF75EFE052258
:1014B000120790882049000504D5204B1C88052080
:1014C000A04311D09088C3061D481FD58388DB0731
:1014D0001CD003881B0619D5012282800288802334
:1014E0009A430280486822E018880422104318803A
:1014F00018884008400018800C68002C05D0022095
:10150000185E995E0A229A5EA04710BD9288D206A4
:10151000FBD582889207F8D50288D205F5D502223C
:1015200082800288FF2301339A4302808868002862
:10153000EBD0804710BD00003C7DFC07000200504E
:1015400000010050EF4801880122120391430180FD
:101550007047EC4801880122120311430180642086
:1015600000BF401EFCD17047E649CA88D208D200AD
:101570000243CA807047E349CA8870239A43000136
:101580000243CA807047F8B5050049D0DD4C297880
:101590002088402290438901084320806878FFF723
:1015A000EAFF2878002803D168780009FFF7DCFFFC
:1015B000E87804260128208833D0B0432080287999
:1015C000A1880002C9B20143A180E088012740063A
:1015D000400F7F02042826D0FFF7B4FFA8780F2819
:1015E00000D900BE61880F2252029143400201439C
:1015F0006180687961888908890001436180A879E0
:10160000012820883BD0B8432080E879072800D9FA
:1016100000BE6188FF22C132914380010143618095
:10162000F8BD3043CAE7FFF75EFDB74900280880E0
:1016300001D1B6480880FFF78CFF2088384320800E
:1016400021884020814301432180608830436080AD
:101650006088C004C00C608060880F214902884304
:10166000084360806088FF21C1318843FF218131B8
:10167000084360806088800880006080F8BD38433F
:10168000C2E7A0480188012211430180704770B56C
:1016900005469C4C002020802120000160804020D5
:1016A000A080FFF715FDA081A18970208143403102
:1016B000A181062000F0E3F82846FFF764FFFFF75A
:1016C000E0FF70BD8F4801884908490001807047DC
:1016D0008C480188022211430180704700B5FFF752
:1016E000F7FF884801888907C90FFBD10121C18113
:1016F000008A00BDF8B5834C05466088000700D518
:1017000000BE2088009067880020FFF7C0FF608837
:1017100004210843608060880F2149020123884327
:101720005B02184360802088984320806188FF20F6
:10173000C130814301436180208840218843A90151
:10174000084320802089800A800218432081608914
:10175000800A80021843608120888021084320800D
:101760002188581081432180FFF7B8FF8009FF3896
:10177000FF38023886B22088FF21013108432080DB
:10178000FFF7ACFF8009FF38FF38023880B2012D27
:1017900023D0991B012589B2AD02A94200D300BE16
:1017A0002289920A92020A432281181A80B2A84220
:1017B00000D300BE6189890A8902014361812188C1
:1017C000FF20013081432180FFF788FF8009984284
:1017D00012D9FF38FF3802380FE07100591A01257D
:1017E00089B2AD02A94200D300BE2289920A9202B8
:1017F0000A4322814000D8E7181A082800D300BE07
:10180000009820806780F8BD3E490120C88140488B
:101810000068002800D00047704710B500F03CF881
:1018200038494A88D205520F062A01D9062102E01A
:101830004988C905490F0622511AC84010BD10B584
:10184000FFF746FF2F4801888907C90FFBD1012107
:10185000C181008A2C4A2F491288801A7D22D20029
:101860005043002801DD4A1002E0002801DA2A4A2C
:1018700080185DF7DDFB8011193040B210BD0028E3
:1018800009DBC106C90E0120884024490860BFF366
:101890004F8FBFF36F8F7047F8B5054619484188E1
:1018A000090705D5FFF717FC0646FFF718FC0FE000
:1018B00000888009C007C00F05D0FFF7F9FB064676
:1018C000FFF7FAFB04E0FFF7FBFB0646FFF7FCFB24
:1018D00004462804401B124D71190E465DF792FB19
:1018E00007462004001B31465DF7A2FB391A680049
:1018F000814201D90020F8BD28468142FBD888B238
:10190000F8BD000000150050FA52FC0740760000B8
:10191000487DFC07AA0500002BFDFFFF80E100E0E9
:10192000FFFF0000F8B51D481B4D0068A84231D0EC
:10193000FF26C136012130465AF74EFF04461848AB
:10194000016818480A0A017042700A0C8270090E78
:10195000C1700022A35CFF21C0319F07891ABF0F0D
:10196000615CC75D79405940A154521CB242F1D329
:101970000C481C222146001D5FF752FB002800D0B6
:1019800000BE20465AF7A3FF0648406840F7BDFF57
:1019900002480560F8BD0000658734129CB8FC075A
:1019A000E852FC07FC52FC0702480068002800D0FF
:1019B000004770474C7DFC078307FF22DB0E9A40EF
:1019C0008907090E9940002808DB8308DB489B0043
:1019D0001B18186890430843186070470007000FF1
:1019E00008388308D6489B001B18D86990430843E1
:1019F000D8617047D34930B4884201D0012100E05A
:101A00000021D14A4901891808E0838ADB07DB0FEE
:101A100012D00388541C8D68CC81AB54CA898B8941
:101A20009A42F2D382885208520082808A69002A40
:101A300002D0C88930BC104730BC704710B5C348CD
:101A400000F0FBF810BDEFF31081012282F3108843
:101A5000BC4B052212079842908801D1802300E0F8
:101A6000402318439080002903D0012080F3108880
:101A700070470020FAE710B502464032938FDB072B
:101A8000DB0FFBD183898022934313438381CCB244
:101A9000C0231C520B041B0E03800902090E818017
:101AA00081899143818110BDA64A904201D00120D5
:101AB00000E00020A44A4001801841617047F0B561
:101AC000A04F0D460446B84201D0012000E000209E
:101AD0009D49400146182046FFF7B5FF7C20005B7A
:101AE00028680102090A2046FFF7C5FFE978C80601
:101AF0008A06800FD20FC000920049071043490F99
:101B00000843A081E878C109204680300183E97844
:101B1000CA091AD0BC4210D14906CA0F218A202313
:101B20009943520111432182E9784906CA0F218A5B
:101B30000223994352001143218229790907890F11
:101B4000818329798907890F0184287A3077E868A9
:101B50003061286970616869B06128790007800F79
:101B60007077F0BD828A5209D207D20FFAD0018075
:101B7000704730B513460C46054606E021782846E6
:101B8000641CFFF7EFFF5B1E9BB2002BF6D130BD4C
:101B900070B56C4D0446A84201D0012000E0002041
:101BA000694E400186190020F080B280002B06D0DB
:101BB000012B07D13160AC4205D1022004E0204660
:101BC000FFF7D7FF70BD032000F029F8A08802219D
:101BD00088430843A080A088802188430843A080D0
:101BE000317FAC4201D1022000E00320FFF7E4FE88
:101BF000AC4201D1022000E0032000F007F870BDE4
:101C0000818A8909C907C90FFAD07047002805DB06
:101C1000C106C90E012088404D4908607047002860
:101C20000ADBC106C90E012088404949803108609D
:101C3000BFF34F8FBFF36F8F7047F8B5414D424EE2
:101C4000044620890007000F062826D009DC012859
:101C500040D002281DD00428F3D12046FFF7CAFE49
:101C6000EFE7072828D00C28EBD1AC4201D00120A7
:101C700000E00020400187192046FFF7BBFEA18845
:101C800049084900A180B9690029DAD0F889884754
:101C9000D7E7204600F01FF8D3E72046AC4201D03A
:101CA000012100E00021490189190A69002AC8D0F0
:101CB000818A9E2319400BE02046AC4201D00121CD
:101CC00000E00021490189190A69002AB9D00121DF
:101CD0009047B6E7F8BD1B4930B4884201D00121D6
:101CE00000E00021184A490189180EE003891B060B
:101CF0009B0F032B1BD0838A9B06DB0F002B1BD073
:101D0000531C0C68CB80A25C0280CA888B889A42E4
:101D1000ECD3828802239A438280828880239A436C
:101D200082804A69002A07D0888830BC10477C230B
:101D30001B5A9B07DB0FE1E77EE6000000E400E0B2
:101D400000ED00E000100050507DFC070011005035
:101D500000E100E010B50446FFF738FAA04202D2D5
:101D60002046FFF73DFA58480188C90708D1018885
:101D70000122114301805448603841894907FCD54C
:101D800010BD38B5514C054620684107490F6846DB
:101D900001700078854219D04B4860384089C005F1
:101DA0000CD5A81E03005DF7FBF905040604040426
:101DB00009000B2000E01320FFF7CCFF2068C008CB
:101DC000C0002843206060684007FCD538BD40480B
:101DD000007870473E4900200870704705210907C8
:101DE0000988090600D400BE80003A4909583748DE
:101DF000016139494161704710B5EFF3108401204A
:101E000080F31088304860384089C0050BD53049D0
:101E100001200870FFF7DAF9304908702A48008875
:101E2000C007C00F487005200007018880221143B9
:101E3000018026480168C908C90001604168490756
:101E4000FCD50320FFF7CAFF002C03D0012080F34C
:101E5000108810BD0020FAE770B5EFF31084012060
:101E600080F3108805210907088880221043088024
:101E700016480368DB08DB00036043685B07FCD59A
:101E8000174B0361144B43610888904308800E4848
:101E900060384089C0050ED50D4900200F4D0870EF
:101EA0002878FFF79DF96878002804D10648018852
:101EB000490849000180002C03D0012080F31088DC
:101EC00070BD0020FAE70000800000500000F40719
:101ED000907DFC07744BFC07090404A4F852FC072E
:101EE0000F00990910B50A4880890A49C96A002972
:101EF00001D0884710BD042000F001F810BD002873
:101F000005DBC106C90E01208840034908607047FF
:101F1000201300501053FC0780E200E0F8B50125C3
:101F2000AD07AC6B2046FEF7F9FC6949694F4A687A
:101F3000861800204860394630465DF763F86649E8
:101F400048603A465043301A00D0381A80B20860D0
:101F5000286B082188430843286360480460604870
:101F60000068002802D0A04200D200BEF8BD10B523
:101F7000FFF7FBF8052000074189890703D0418955
:101F80008908890041810189802211430181018AE8
:101F9000042291430182818A8907FCD500F0B4F8BC
:101FA000012080070169490700D500BE0169490782
:101FB000FCD510BD10B54B4C08202080FFF7CAF8A7
:101FC00020894007FCD4FFF7D0F847480521008856
:101FD000090748804548464C0088801E60800720DD
:101FE0002080FFF7B7F820884007FCD4FFF7BFFF39
:101FF00010BDF8B53F480168C90703D00168022247
:10200000114301600168490204D50168012292056B
:102010001143016001272E4EBD072C69002C55D0BD
:10202000200606D58020A8614BF731FC1E20FEF764
:1020300007FCA00703D50220A86147F726FB20076D
:1020400008D50820A861002047F7D8FA042030708E
:1020500000F0FBFCE00505D5FF200130A861012060
:1020600047F7CCFAA00504D501204002A8614BF740
:1020700077FC600603D54020A86147F7BAFAE0066E
:1020800003D51020A86145F777FE60070FD504201F
:10209000A861144801894908490001815BF714FAD5
:1020A00040F7CEFA1E20FEF7CBFB00203070E00791
:1020B00006D00120A8615BF723FA4BF7E8FB3770E5
:1020C000A006AAD52020A86100BEA6E7F8BD0000A2
:1020D000947DFC077102000040000040A47DFC07D5
:1020E0009C7DFC0700330050647CFC07687CFC0787
:1020F000001600500002004010B540F7E6F86748AF
:1021000080686749486010BD10B540F70AF9644817
:1021100062494068886010BDF8B5002500F0B9F844
:1021200000270090FEF742FB01465E4E002000298A
:1021300002D13179022900D100905B490989C90790
:102140000DD15AF726FA002809D0F0780125002889
:1021500005D005200007808AC00701D0042596E03D
:10216000308800287DD1FEF721FB002806D14F489A
:10217000806A002802D000F08CF80090FEF7DAFBAD
:10218000B17868465AF7FDFF00286AD00124A407F9
:10219000206940067BD44348817868464BF7CEFCE3
:1021A000002874D00120FEF7EBFF0099002906D02B
:1021B000206AFF383938DA2801D8491E00913C4896
:1021C00002883C48016850183B4A1060E26B920A52
:1021D00092020A43E263E16B384A1140384A1668BA
:1021E000B2021143E163E16BC902C90A4005014330
:1021F000E163344A009804250021904200D300BED8
:10220000314B0CCB5CF728FF0903000D0843244A2F
:10221000401E711C1060884200D116602148007970
:10222000002801D0012100E00021106847F79CFB45
:102230002648C06A8047FEF7E1FB002802D0FEF77F
:1022400089FF0127154E206B0004C00FFBD03068BA
:10225000C005FCD530688024A0433060002F03D037
:1022600000E014E0FEF781FF0F494889462804D2B8
:102270004622174B101A18604A81FFF73DFF30685D
:102280000006FCD5052000070189A14301812846ED
:10229000F8BD10480068806A7047000000020040E6
:1022A0009C7DFC0754BAFC070033005074BEFC0749
:1022B000687CFC07F052FC074053FC07FF03E0FF7B
:1022C000EC52FC0740420F00887CFC0758BFFC071B
:1022D000987DFC0758B9FC0700207047704770478D
:1022E00010B5282801D2282002E0E62800D9E620EF
:1022F000FF21F33148437D21C9005CF783FE813023
:10230000C0B210BD7047704710B5022902D0012934
:1023100000D000BE032802D3FF2802D000BE02294D
:1023200002D000F09BFB10BD0C2010BD01218907DD
:10233000086B0722104308638C480168021391431D
:102340000160704710B50220FEF71AFF8748016848
:10235000020391430160864800214163416B1F22C3
:102360001204914342138918416301060868F02260
:102370009043E030086010BD10B58AB07D494162DD
:102380007D4981627D494161002430210C547C49A2
:10239000C1627C4901607C4901627C4941607C49A1
:1023A000C16100F03EFB7248416B1F221204914351
:1023B0004213891841636D480168C212914301605C
:1023C00068460455641CE4B2282CFAD301467148CF
:1023D0002822006840305CF78FFE092000F03BFBAC
:1023E00000F03FFB002802D0012000F034FB00F099
:1023F00019FBFEF70BFEFEF738FE00F0D5F800F0F3
:1024000058F8FFF79FFF00F00BFB00F083F800F097
:102410001CFB0AB010BD10B55548416B1F221204B9
:10242000914342138918416300060168C908C90035
:10243000016005200007018908221143018100F095
:1024400010FB002802D0012000F005FB00F0EAFAA2
:10245000FEF7DCFDFEF709FE00F0A6F800F029F813
:10246000FFF770FF00F035F800F0EFFA10BD10B57F
:1024700004467022484949485CF73EFE47484830C8
:10248000011B46481038018344495C31091B4183D4
:1024900010BD10B500F0C6FAFEF7E7FD00F084F8B5
:1024A00000F007F800F0BCFA00F023F800F0CDFAD5
:1024B00010BD2F4B10B540331868394C0102090E7E
:1024C000C2B20A3109040A322040114301431960A3
:1024D00010BD344A118B3148103083691B0C1B042A
:1024E0000B438361518BC269120C12040A43C2610F
:1024F00070472C4A203A118B28481030C3681B0CB7
:102500001B040B43C360518B0269120C12040A4373
:102510000261704710B5FFF7ECFFFFF7DAFF2148C3
:102520002038018A1D4810308268120C12040A43B8
:1025300082601C4A40329188036A1B0C1B040B43C7
:102540000362D188426A120C12040A43426215499E
:102550004A88836A1B0C1B04134383628988C26AFE
:10256000120C12040A43C26210BD000000020040B7
:1025700040000040D922FC07DD22FC070923FC07AC
:102580002D23FC07DF22FC070523FC070723FC079C
:10259000E122FC074CB9FC07904BFC07709CFC0740
:1025A00000FF00FF20300040F0B5FE48406B7F2167
:1025B000090288430B2109024018FA494863086A56
:1025C000F94980B24018F7490862886BF74901223F
:1025D00008405203F34980188863F248403001698B
:1025E00003231B0219430161818B10242143818342
:1025F000EC4820308188012421438180ED49EC485A
:102600000860ED4C20883F21090188432F210901F2
:1026100040182080E84820388169E84D490D490577
:1026200049198161C169E64D294009256D024919A1
:10263000C1614168E34D2940E34D4919416081681A
:10264000E24D2940E24D49198160C168E14D2940C0
:10265000E14D4919C1600169E04D2940E04D49193A
:102660000161E049C514097809064919C1256D01C0
:102670002943DD4D29600525DC49AD020D816D1D25
:102680008D81DA4920310D892D0A2D0255350D81B4
:102690008D25AD000D82D64D8D82D64D0D83D44D46
:1026A0000E3D8D83D349D14DC91D40352980D24976
:1026B000A181C16BD14C2140D14C0919C163FF20CC
:1026C000D04C6C302080CF482030068B1F21490130
:1026D0000B258E43AD0176190683CA4840308688A3
:1026E00009278E43BF01F6198680068915278E4378
:1026F0007F01F619068186898E4371198181FF2039
:102700008D30A080BF4880300189E024A143194367
:102710000181818B4909490119318183B2482030F7
:10272000818B5B01994389188183AF4880300168B0
:10273000C908C900C91C0160AB49B34840314862AF
:10274000F0BDA94908B500208031C8620090401C46
:102750000090FF28FBDDAD480078AA49C006820D35
:102760004031C8681F235B0198431043C86008BD0F
:10277000A7488C490068403108608A488169890906
:1027800089011C3181618169C21391438161016BAF
:102790003F22120691430722920689180163016BBA
:1027A0003F22920191430F22D20189180163016BEC
:1027B000890989011E31016370477A48C169490856
:1027C0004900C16170478F4808B54030C1688F4AE1
:1027D0008905C90E1170C1681F2252019143C16061
:1027E00081490120887180488030C16A03221143E9
:1027F000C16200200090401C0090FF28FBDD08BD56
:1028000008B579490220887100200090401C009092
:102810000B28FBDB08BD634841210177C169032216
:102820005202914302158918C16170475D484030DA
:102830000168774A11600021C943016059488169E4
:102840008909890181618169C21391438161C169EB
:102850000322520291430315C918C161C169702353
:1028600099434031C161016B3F231B0699430B2300
:102870005B06C9180163016B3F239B0199438918CB
:102880000163016B89098901183101637047F8B54B
:10289000554803274771434C6068C009C001143094
:1028A0006060FFF7C3FF43202077FFF7A9FFFFF722
:1028B0008AFF0025261500950098401C0090B04224
:1028C000FADB494903204871364880308068C705E3
:1028D000FF0DFFF736FF00950098401C0090102870
:1028E000FADBA0694002400AF9050843A061A0692B
:1028F00048490840B9010843A061FFF78CFFFFF782
:102900007FFFFFF760FF00950098401C0090B042E9
:10291000FADB354903204871224880308068C705BA
:10292000FF0DFFF70EFF00950098401C0090102847
:10293000FADBA0694002400AF9050843A061A069DA
:1029400034490840B9010843A061FFF764FFFFF76D
:1029500057FFFFF738FF00950098401C0090B042E9
:10296000FADB2149032048710E4880308068C60593
:10297000A069F60D4002400AF1050843A061A06974
:1029800024490840B1010843A061FFF716FFFFF793
:10299000EFFEFFF7D6FE00950098401C009010282F
:1029A000FADB39E00030004000008888FF00FEFFBD
:1029B00059055C07800000402020004009581A009B
:1029C000FEE1FFFFE0E000000809294900000303E1
:1029D000696A686C031FFFFF70600000E0E0E0E0E0
:1029E0000B0A0A08A87DFC070010004020130040D5
:1029F000340A000051080000070F00002F64E0FEB9
:102A0000101A06010012004050015001E051FC076D
:102A10004453FC073F80FFFF134846810120F8BD67
:102A200035E7704708B51148082101710021009170
:102A3000009A521C0092102AFADB0091491C009166
:102A40001029FBDB0321417108BD08480221817177
:102A5000002181807047064908707047044800785B
:102A600070470348407870474853FC070010004007
:102A7000A87DFC07FFB585B00C46FD205EF7B8FBCE
:102A8000039000276846077008986946060A208860
:102A90005FF7DAFC05466088002800D000BE002DF4
:102AA0006AD1FD2000F058FF694609781423594384
:102AB00042680B1DD35C022B21D15158354A09883D
:102AC00091421CD10197029720885FF758FC00289B
:102AD00000D100BE01AB002204A94EF745FA0498CC
:102AE00021468005C00F5FF735FC05062D0E43D14A
:102AF00068460178E28830465FF707FE21E000284B
:102B00000BD080698446002807D06846A288618877
:102B1000A31D00786546A8470546019702972088BF
:102B200001A94DF79CFF002D26D101980089C00B0B
:102B300007D16288A1882088A31D4DF7FAFF051EE2
:102B40001AD1314603985EF771FB0146A088079AB7
:102B5000801D83B2104859F74DFF0746A288A11D7A
:102B6000801D5CF7C9FA684600787880A088B88034
:102B70003E70384659F759FF04230848079A0899C8
:102B800059F738FF21880180857059F74EFF0020E2
:102B900009B0F0BD022900000AFD0000160C00007B
:102BA000F8B50025244CFF272E46002813D12846CF
:102BB00010302661A082E7826660A660E681A68169
:102BC000C0B2214626605AF714F96D1CEDB21834D4
:102BD000022DECD3F8BDE08A5EF790FB002802D00E
:102BE000416820468847E7826660A660E681207DCE
:102BF0005AF759F96D1CEDB21834022DEBD3F8BD1C
:102C0000F1B50D4D0D4F00242E46E88AFD2803D165
:102C10001820604380194760E88A5EF76FFB002840
:102C200003D08268284600999047641CE4B21835A6
:102C3000022CEAD3F8BD0000B07DFC07584CFC071D
:102C400010B500F0F5FB00F0CCF90120FDF762FDB6
:102C500010BD0C21394A10B5414389188978FF29E4
:102C600002D000F0DCF810BD01F053F810BD10B533
:102C700001F011F9002801D001F04BF810BD10B59A
:102C800001F047F810BD10B52D490A780270401CBC
:102C9000491C5CF731FA10BD2949498C0180704705
:102CA0000821018010214180002181807D21C18087
:102CB000704770B50C4601780025214B002904D0DF
:102CC000012909D04820207070BD8278011D1A703A
:102CD000581C5CF711FA01E040885884257070BDDB
:102CE00001200870002048808880704710B500F0EF
:102CF000C6FC10BD1FB54978002908D0114A01292A
:102D000001D002290DD101230092042206E00EA277
:102D10001ECA03946C460EC401231022694600F0BB
:102D2000CDFC1FBD10B50446497800F0C9FA204615
:102D300000F003FD204600F0F4FC10BDF47DFC071C
:102D40002C7EFC0740E20100000102030405060797
:102D500008090A0B0C0D0E0F0021A94A05E0834259
:102D600001D101207047491CC9B20C234B43D35CED
:102D7000FF2BF4D10020704770B5A149A14C0E463D
:102D80000C36A14D0DE052185268002A07D0C2B28D
:102D90000C235A4351184968401C60702DE0401CB8
:102DA000607060780C2242438B5CFF2BEBD10AE011
:102DB00089194968002903D0FFF7CEFF002809D000
:102DC0002078401C207021780C204143705CFF2843
:102DD000EED117E020780C21414389194968401C45
:102DE00020700AE04919C968002909D0C1B21C2223
:102DF00051434919C968401CA0708847002070BD24
:102E0000401CA070A0781C2141436A5CFF2AE9D1D4
:102E10000020A07060702070012070BDACE7F8B594
:102E200005460024764E0AE080198168002904D006
:102E3000641CE4B22846884701E0641CE4B22046E2
:102E40000C214843315CFF29EED16D4E00240C3635
:102E500009E08F19B968002903D0FFF77DFF00282A
:102E600009D0641CE4B20C216143705CFF28F0D1EE
:102E70000024654E10E0641CB968E4B22846884717
:102E8000F1E780190169002904D0641CE4B22846E6
:102E9000884701E0641CE4B220461C214843315CB1
:102EA000FF29EED1F8BD70B5564E7068002828D1C4
:102EB0002C2304220921554859F79CFD0321017058
:102EC0000A2170604170DC2101840025857604466A
:102ED000458010210A305CF728F92021E176A5838E
:102EE000E5834B486584C08F0021002800D908463F
:102EF000E0844748002140300088002800D9084677
:102F00002085706870BDFEB500243E4E25461436FF
:102F10003B49009501950C223431684602955CF7D7
:102F2000EBF80C20604380190C2269465CF7E4F84A
:102F3000641C032CECDB334C0D224C34227035A185
:102F4000601C5CF7D9F82E4965842431042059F7B8
:102F500050FF0021042059F77EFFFEBD10B501028D
:102F60000446022304222F480A3159F743FD0C225C
:102F7000012154430170234A13214170143200216E
:102F8000A218D17059F751FD10BD70B50D46010260
:102F9000244814462C230422801E0A3159F72AFDA6
:102FA000014620310D724C7259F73FFD70BD10B5CE
:102FB000FFF779FF59F739FD12490020486010BD2D
:102FC000104A002138324B00D35C834203D14800C1
:102FD000801840787047491CC9B20A29F3D30420ED
:102FE0007047084910B50020FF23383104244200FF
:102FF0008B545218401CC0B254700A28F7D310BD2D
:10300000944CFC07E07DFC07B44DFC07040D000068
:10301000F0BBFC074D554C54495F434F4E5F414454
:1030200043000000040E000010B5104659F728FFB9
:10303000002802D000BE002010BD01230422092177
:103040009A4859F7D7FC0121017059F7EEFCF2E7D5
:1030500010B50C780F2C17D00CDC0C2C14D004DC21
:10306000012C13D0032C0DD116E00D2C0CD00E2CFE
:1030700008D109E0112C07D0122C05D0132C03D055
:10308000172C01D000F015FF002010BD4878002853
:1030900005D1FFF78CFFF7E74878002801D000BE84
:1030A000F2E700F073FDEFE7F8B51C4610460E4658
:1030B00059F7E6FE022802D000BE0020F8BD240A1F
:1030C000032C00D300BE0C202746474378483D1808
:1030D000AC70FF2C1AD00121E9700321042059F7AC
:1030E000BAFE73483188C153707A28713146681D21
:1030F00006220A315CF700F87A206E4960434018D6
:103100006030017E01222046FFF73FFF3146204616
:1031100000F037FED1E770B50D784C78092D04D05A
:10312000002C00D000BE00F0C4FE002070BD70B5C1
:103130001D4610460C4659F7A3FE2A0A032802D062
:1031400000BE002070BD0C2042435948FF211018DA
:1031500081700021C170204600F01FFEF1E7F0B53C
:1031600008780025544C89B01F461646002804D024
:10317000012817D0022827D129E06846FFF783FDF0
:10318000684603783246394620460A3359F732FCFE
:103190000446057068460278411C6280201D5BF77A
:1031A000ABFF2BE069460D806846FFF775FD0A23EB
:1031B00032463946204659F71DFC01210170694607
:1031C0000988418059F731FC002009B0F0BD0A237D
:1031D0003946204659F70EFC04466846FFF760FD65
:1031E0000220207068460088608068464088A08081
:1031F00068468088E0806846C08820812046E1E7F4
:10320000002070470020704738B50C4648206946BA
:1032100008701D0A2046FFF74CFD274829020223AB
:103220000422801C0A3159F7E5FB69460978417090
:103230002178017059F7F9FB002038BD10B5104610
:1032400059F71EFE012809D1FFF7E8FD002805D037
:103250000221042059F7FFFDFFF711FD002010BDEA
:1032600070B518460D460146E1200623000159F7C6
:10327000C1FB044601462846FFF732FD204659F7B8
:10328000D4FB002070BD0020704700207047002054
:103290007047FEB51C46089B0E26084D6F4668C752
:1032A0001346224600F06FF9FEBD0000020D00003B
:1032B000F47DFC07607EFC070B0E0000D44CFC077D
:1032C000F8B50E467A2148430B4D0746441920466F
:1032D000082226771430114600F07AFBA01C102239
:1032E000314600F075FB3FF70AFB6082E85D012183
:1032F0000843E855F8BD0000607EFC0710B50A7869
:10330000180A13005BF74CFF0805191919131A1A4C
:1033100016190C22434C424312190123D3727A220C
:10332000414C00234243A354FFF7E0FC06E0FFF7C3
:10333000E1FC03E0FFF7F6FC00E000BE002010BD5A
:10334000FFB5180A1E4681B01B0A00901C467A2061
:1033500044430C2534486B430A78324D2018074605
:103360005D19921E603713005BF71AFF06041236D0
:1033700019222D3689783976C90706D0691D0622AB
:1033800071305BF7B9FE2879F8750020E87228E003
:103390000020E87238760098FFF7E0FD21E0224D2A
:1033A00017223A30891C5BF7A7FE285D042107E04D
:1033B0001D4D10226130891C5BF79EFE285D102197
:1033C000084328550DE0184D1C221E30891C5BF760
:1033D00093FE285D0221F3E73346039A019800F03B
:1033E00068FD002005B0F0BD00207047180A7A2261
:1033F00050430D4A097880186030017600207047EC
:10340000002070470020704700207047FEB51C4622
:10341000089B0726054D6F4668C71346224600F0F5
:10342000B2F8FEBDF47DFC07607EFC07544DFC073E
:10343000704710B50A23042209210B4859F7DAFA1C
:1034400004461B2020701420FFF7BAFD6070142082
:1034500060800420A0800020E080FF217431218161
:10346000204659F7E2FA10BD1B0D0000F8B50E46D4
:1034700009781846002425460B005BF791FE0906E3
:1034800009120915150C180F1B000B241AA512E0C0
:1034900007241CA50FE008241CA50CE007241EA58A
:1034A00009E00A241EA506E00D2420A503E0062459
:1034B00022A500E000BEA31C0146224859F79AFA53
:1034C0000746307838707C70002C04D0224629469C
:1034D000B81C5BF711FE384659F7A7FA0020F8BD73
:1034E000FEB51C46089B0126174D6F4668C713465C
:1034F000224600F048F8FEBD4469616C6F672053B6
:10350000656D69004441313435333100123456FF62
:10351000FE9ABCDE0000000001D200800500010020
:10352000312E302E302E302D4C450000765F362E59
:10353000302E31342E31313134000000FFEEDDCC3D
:10354000BBAA0000031400008C4DFC07FFB583B03C
:103550001E4E002401AFA0003558002D00D100BE42
:10356000009703A80FC8A847002809D0641C062CA0
:10357000F1D303AC0FCC00F09CFC002007B0F0BDF1
:1035800068460079FAE7F8B5089C9C46079D034613
:10359000002C19D0641E17D40D4FE600AE5B9E427E
:1035A00001D0BE420ED1E3005B195C68002C00D153
:1035B00000BE002C08D013466246A047069908704A
:1035C0000020F8BD641EE8D50120F8BD944DFC072D
:1035D000FFFF0000052000070089000608D5012034
:1035E0008007006B000403D403480078C00701D0B3
:1035F000002070470120704754BAFC0770B510498D
:10360000049C4118052901D3012070BD00F00FF87A
:103610000025002807DB0B4A81005058002803D002
:103620005550804700E000BE2570002070BD044961
:103630004018052801D240B270470020C0437047AF
:10364000F2FBFFFFD47FFC07F8B5494D84002959F0
:10365000002912D101021E23042246480A3159F7DB
:10366000C9F9012606700746285107224249801CE5
:103670005BF742FD002038717E702859F8BD10B507
:103680000446FFF7E1FF59F7D0F90020384AA100BE
:10369000505010BD70B5364D84000C3529590029A5
:1036A00001D0084670BD01021E23042231480A31B0
:1036B00059F7A0F904210170285170BDFFB581B000
:1036C0001F460446FFF7E6FF294D0646A4000C35C9
:1036D00028591021801C5BF728FD2859039A801C6B
:1036E00002995BF709FD7770304659F79EF9002083
:1036F000285105B0F0BD70B51D4D84002435295901
:10370000002901D0084670BD01021E230422194879
:103710000A3159F76FF907210170012141702851D1
:1037200070BD10B50446FFF7E6FF59F77EF9104A61
:103730000020A1002432505010BD70B50546FFF79F
:10374000DAFF04467A2045430C4808222D18287FCA
:103750002077688A608229462046143114305BF74E
:10376000CBFCA91C1022A01C5BF7C6FC70BD00009E
:10377000E87FFC07140E0000AC4DFC07607EFC07E0
:103780007047704770B50D460446FFF723FF0028C9
:1037900006D06B482A460421201859F76AFC70BDF0
:1037A000FDF707F86648042208231146801E59F7E2
:1037B00021F94560047059F738F970BDF8B5614CCE
:1037C000069D06190024002E26D0012E0CD05F4F36
:1037D0005D4B3A46283A022E0AD05A49C91E411872
:1037E0000A2927D30120F8BD00F080F8287039E0BD
:1037F0000878461E092E0DD88000001F10589842E8
:103800002FD1B0003B5813504A6808781146FFF793
:10381000B9FF26E000BE24E04A68002A02D04C48E6
:10382000824200D300BE087845494018042159F768
:1038300020FC16E04349891E4018C0B2411E0929E8
:10384000E8D88600B218803AD16F002909D0994291
:1038500007D0404B994204D0D467F219803AD4671C
:1038600088472C700020F8BD0A46010010B5384882
:1038700001D0814200D300BE0020344B283B84009D
:103880001C59002C04D0401C0A28F8DB002010BD75
:1038900084001A51401C0406240EF7D02046FFF77E
:1038A00071FF204610BD70B50446401E09281BD884
:1038B0002648A10028380D18803DE86F002813D055
:1038C000244EB04210D01E480421201859F71BFC8A
:1038D0001B48042208231146401EEE6759F78AF858
:1038E000047059F7A2F870BD00BE70BD10B508781D
:1038F0000C46411E09291FD882001448121F28387F
:103900008258144B9A4205D1002289004250283037
:10391000425012E0890040580B4988420DD10422E0
:1039200008231146064859F765F821780170616847
:10393000416059F77AF800E000BE002010BD000099
:1039400003040000FFFBFFFF8337FC075880FC07E0
:10395000FCFF3F008137FC070021154A06E0834247
:1039600003D11C20414388187047491C1C234B433A
:10397000D35CFF2BF3D10020704710B5182304222D
:1039800009210C4859F736F804461B202070FD2009
:10399000FFF716FB6070FD2060800420A0800021EE
:1039A000E180E1602161A182204659F73EF810BD17
:1039B000B44DFC071B0D00003EB51D46069B0024C0
:1039C00000931346019402942A46FFF7DCFD3EBDA6
:1039D00010B58A4201D35FF7C3FC10BD70B56248D1
:1039E00000224168D243002901D0114600E00121A4
:1039F000CB1741604C185D495B410D684E682C4304
:103A000033430C604B600369002B01D0144600E087
:103A10000124E317250F1B012B4304610D682401CA
:103A20004E682C4333430C604B600368002B01D07D
:103A3000134600E0012303600D68DC174E682B433A
:103A400034430B604C60C368002B01D0144600E087
:103A50000124E317650FDB002B43C4600D68E4000D
:103A60004E682C4333430C604B608369002B01D0BC
:103A7000144600E00124E317A50E9B012B4384614B
:103A80000D68A4014E682C4333430C604B604369BE
:103A9000002B01D0144600E00124E317E50E5B0182
:103AA0002B4344610D6864014E682C4333430C6022
:103AB0004B60436A002B00D101224262D017D40D23
:103AC000430223430C6850024A68204313430860B2
:103AD0004B6070BD38B5012003252D0201460090D2
:103AE0001D232A460020FDF768FC00241C232A46DB
:103AF000042120460094FDF760FC00211B232A4688
:103B000008460094FDF759FC00221A2303211046B1
:103B10000094FDF752FC00220F230621104600946A
:103B2000FDF74BFC04232A46052100200094FDF7F5
:103B300044FC00232A46092118460094FDF73DFC69
:103B400038BD10B51B20FDF75DFB00F039FE0849BC
:103B50000848FDF7B4FFFFF7BDFF07480121828940
:103B60008A430A43828110BDF87CFC07F07CFC0785
:103B7000B850FC07001100500003005010B5E34995
:103B8000E3A05DF7BBF8FFF75BF810BDDF4910B5A8
:103B90000D31DFA05DF7B2F8FFF769F810BDFEB593
:103BA0000026DDA05DF7AAF8E14F00240C20604359
:103BB000C519E878012813D1761CF6B22146DDA09C
:103BC0005DF79CF8E8796A79A9796B4607C32B7A87
:103BD0006A7AA97AD9A05DF791F8E0A05DF78EF82E
:103BE000641CE4B2032CE1D3002E02D0032E02D0D9
:103BF00004E0DBA000E0E3A05DF780F8F1A05DF752
:103C00007DF83046FEBD70B50C214843C8490024FC
:103C1000F74E45180C2060438119681D0622491D86
:103C20005BF78EFA002805D0641CE4B2032CF1D3B4
:103C3000002070BD0C204443A019807870BD3EB5B3
:103C4000ECA05DF75BF8BA4D00240C2060434019EE
:103C5000C178012926D143798279C17902930192F1
:103C60000091037A427A817AB4A05DF747F8EEA01A
:103C70005DF744F82046FFF7C6FFED494000095ABA
:103C8000ECA05DF73BF8EDA05DF738F82046FFF7B4
:103C9000BAFFEE494000095AE6A05DF72FF8AFA041
:103CA0005DF72CF8641CE4B2032CCED33EBD70B596
:103CB0000C2148439E490024CD4E45180C206043FA
:103CC0008119681D0622491D5BF73AFA002810D0B9
:103CD000641CE4B2032CF1D300240C20604380194F
:103CE0008078FF280CD0641CE4B2032CF5D3FF20AD
:103CF00070BD0C20012160438019C170847006E002
:103D00000C206043294680190C225BF7F5F9204608
:103D100070BD70B5522304220921CD4858F76AFEC0
:103D200004460D20207000216170CA48A080E08008
:103D30000720207201206072A172E1722B222046BE
:103D400011550C300246C4A30D21401E00F0E5F9C8
:103D5000204658F76AFE002425022D1D284659F7F3
:103D60008FF8032803D00221284659F774F8641C01
:103D7000E4B2032CF0D3BCA05CF7C0FFFFF70FFF49
:103D800070BD70B50C460546FFF791FFFFF7C1FF08
:103D900021462846FEF75DFF70BD7FB504460078DA
:103DA000FFF731FF0C214843914D00214019C170AC
:103DB0002078FFF728FF0C2148434019FF2181702C
:103DC00020880C2250435A4AA1788018427983797E
:103DD000C4790094019302920391037A427A817A22
:103DE000A8485CF78BFF7FBDF8B50E461C0A200281
:103DF000D1B20843009059F743F8022802D000BE20
:103E00000020F8BD032C00D300BE0C2027464743FA
:103E100047483D18AC70FF2C1AD00121E9700321EE
:103E2000009859F718F842483188C153707A2871C0
:103E30003146681D06220A315BF75EF97A20924905
:103E4000604340186030017E01222046FFF79DF854
:103E500031462046FFF795FFD2E770B51C0A2502D0
:103E6000D0B205430E46284659F70AF8032802D077
:103E700000BE002070BD0C2044432D48FF212018B7
:103E800081700021C1700221284658F7E4FF3046B6
:103E9000FFF783FFEDE710B5002420020121001D8C
:103EA00058F7D9FF641CE4B2032CF6D3FEF764FF85
:103EB00010BD70B5754C1D46031BA04221D021DCFE
:103EC000734BC3181DD0734CE3421AD10C4649887A
:103ED000152918D0192917D06C4808232946001F26
:103EE00058F788FD21780C225143114A89188978A6
:103EF000017061884180002181808021817158F7A3
:103F000094FD70BDC8E003E1FDE00000D050FC0767
:103F10000A0D257300000000436F6E6E65637465C3
:103F20006420446576696365733A200A0D000000D9
:103F3000F47DFC075B25645D2000000025303278AD
:103F40003A253032783A253032783A253032783A8C
:103F5000253032783A253032780000000A0D000012
:103F60004E6F2063757272656E746C7920636F6E2C
:103F70006E65637465642064657669636573200AA1
:103F80000D0000005065726970686572616C20698F
:103F90007320636F6E6E65637465642077697468FF
:103FA00020746865206D6178696D756D206E756D22
:103FB000626572206F662063656E7472616C732037
:103FC0000A0D00002A2A2A2A2A2A2A2A2A2A2A2AE2
:103FD0002A2A2A2A2A2A2A2A2A2A2A2A2A2A2A2A41
:103FE0002A2A2A2A2A2A2A2A2A2A2A2A200A0D00A2
:103FF0008080FC0762645F61646472657373202073
:1040000020202020202020526561645F4368617277
:1040100020202020202020202057726974655F43D3
:10402000686172200A0D000020202020000000009E
:10403000A880FC07253032780000000020202020D6
:10404000202020202020202020200000AE80FC07FF
:104050000D0D00004C0400004D554C54495F434F7A
:104060004E5F414443000000446576696365206902
:1040700073204164766572746973696E67200A0DF6
:10408000000000007451FC07607EFC0709FD000081
:10409000EFF1FFFF0D11FFFF012B09D0042B00D022
:1040A0002FE74B88102B2B462AD000F00EF928E77B
:1040B0004B880D2B1CD009DC022B11D0052B13D003
:1040C000092BF4D12B4600F0E7F81AE7102B13D098
:1040D000112B0DD0152BEAD12B4600F00FF910E76C
:1040E0002B4600F083F80CE72B4600F09AF808E71F
:1040F0002B4600F0ADF804E72B4600F0CCF800E7C3
:1041000000F0CBF8FDE62B46214600F007F9F8E673
:104110002B46214600F030F9F3E670B50646481C00
:104120001070092015460C46507022461946A81CEE
:104130005AF7E2FF3078A41C00193070E1E6000065
:10414000F0B5B5B0FD203EF73EFB0146CF2304227B
:104150009B4858F74FFC9B4F054600269A4803C8DA
:10416000009001916846FDF792FA0120FDF7C2FA2E
:10417000FDF7AEFAFDF7B2FAFDF74FFB0446FDF787
:10418000A1FA7888C005400F062801D9062002E070
:104190007888C005400F7988E1228907890F92004D
:1041A000491C51434C430A30C440710002A8761C9C
:1041B0004452642ED2DB08206880C920A8800120E8
:1041C0006870C92202A9A81D5AF796FF284658F719
:1041D0002CFC042058F754FE032805D17B490A2003
:1041E000FFF742FB7A49088035B0F0BD38B50025AD
:1041F000684605708A88891D5AF77EFF68460078F0
:10420000734C002805D071496420FFF72DFB2080F6
:1042100038BD20880028FBD0C0B2FFF744FB2580C2
:1042200038BD08B50022684602708A88891D5AF791
:1042300063FF68460078012805D0002802D10921D3
:10424000FDF785F808BD09210020FDF79BF808BDA2
:1042500010B5887900281DD01C0AFD203EF7B3FA5E
:104260000146574808230422801C58F7C3FB0C2141
:104270004C435849564A6118897801700C21418095
:104280000221818051880B0A8371C171491C5180C0
:1042900058F7CBFB10BD7047704710B518460C4659
:1042A000014647480823083058F7A4FB21780C2220
:1042B0005143484A891889780170618841800021FA
:1042C0008180817158F7B1FB10BD10B518460C46BE
:1042D00001463B480823083058F78CFB21780C2214
:1042E00051433C4A891889780170618841800021D6
:1042F00081800321817158F798FB10BD10B50C46E1
:104300000878FFF780FC324940000A314018A28843
:10431000A11D5AF7F1FEFFF792FC10BD70B50D46D6
:104320000878FFF770FC2A4E4000361D801901887E
:10433000491C0180FFF783FCFD203EF744FA01464B
:104340001F480A230422401E58F754FB04462878CD
:104350002070688860800220A0800020A0712878EA
:10436000FFF751FC40008119A288E01D5AF7C4FEF6
:10437000204658F75AFB70BD70B50D46FD203EF73C
:1043800022FA01460E480A230422401E58F732FB47
:10439000044628782070688860800220A080002071
:1043A000A0712878FFF72FFC094940000A31411815
:1043B000A288E01D5AF7A0FE204658F736FB70BDD4
:1043C00006FD0000001500500051FC074141FC07AC
:1043D000A480FC07F47DFC07F8B507460120002304
:1043E000024600901946032045F70CF804460221C6
:1043F00080300170F64DF5482A6843881146FF3138
:10440000F7310B8680884886F248066A0123DB066E
:104410009E431E430662FF320020FF323832508234
:104420009082D0821D200882EB484884EB48C882E5
:10443000EB48088300204882384645F723FB0146B5
:104440002868FF30F730C28B920992010A43C28379
:10445000E448416800208847002C02D0204644F7F9
:10446000BAFB2046F8BDFFB58BB00646169800276C
:10447000022821D00D9801881498814278D3718840
:10448000084640383F2802D8159851F7B7FB0C98DA
:10449000361D0088149A80190E995AF72DFE0C9833
:1044A0000188149808180C9908800D9801881498B0
:1044B000081A0D9908805CE100200E9D079069782C
:1044C0002C78090221433180E978AC780902214334
:1044D00071808C46403904242D1D024603468E46C9
:1044E000402900D32878614604291FD0052914D01B
:1044F000062918D070463F283DD8159851F77EFB05
:104500000006000E04D0B848008D0006C00F30D061
:1045100002230120B54A002712E0697800290FD054
:10452000B34A17230CE0B34A0F2309E0522802D004
:10453000D22802D002E0142000E01520AE4A1F234A
:10454000002A1AD0984218D28000105804900028EF
:1045500013D000200890059070884038402803D37D
:104560002878052430716D1C701D00900498B5E00A
:10457000FEE03027F0E03327EEE07088042872D1A7
:104580000627E9E0522862D00CDC4B283FD004DC3F
:1045900041286AD0422858D111E04C2820D0502818
:1045A00053D140E0632830D004DC572818D061286C
:1045B0004BD19BE06C2864D0772846D109E0009865
:1045C000297801700098641C401CA4B26D1C0090F6
:1045D00081E00498401C04900178089881427AD1C7
:1045E0000098A41C401C41084900881C0090687871
:1045F0002A780002104308800599AD1CA4B2002956
:1046000069D008900020059065E00120FBE71022AA
:10461000294600985AF770FD009810341030A4B263
:104620001035009057E0204640301499039088429E
:104630000BD84022294600985AF75EFD009840307A
:1046400000900398403584B245E0342743E00822C7
:10465000294600985AF750FD009808340830A4B253
:104660000835009037E068E0FFE706222946009809
:104670005AF742FD0098A41D801DA4B2AD1D009004
:1046800029E01498001B80B203903088001B001DA5
:1046900081B2012007900498401C04900098401CAF
:1046A0004008400000900498007857281CD0422809
:1046B000CBD100980170090A417000982946801CEE
:1046C0000090039A5AF718FD03980399201884B2B2
:1046D0000098401800900498401C0490007800282E
:1046E0001ED0002F17D01BE04908E2E71498001BEA
:1046F00081B200980391401C4008400000900120C6
:104700000A460790294600985AF7F6FC0399601864
:1047100084B20098DDE70D990988A14200D331E702
:104720000D980088A04208D304990978002904D183
:104730000799002903D1A04201D034270CE00D993C
:10474000001B08800C9801880098801B001F081827
:104750000C99002F08800CD07088042809D00628F6
:1047600007D04038402804D30E984079707100E09B
:10477000342738460FB0F0BDFFB581B01F4616464E
:104780000C46104658F77CFB00257F2802D0218973
:10479000062909D03B4632462146019851F7C1FD12
:1047A0000546284605B0F0BDC00601D50225F8E74C
:1047B00020780028F5D1300AA11D3DF74AFFF0E727
:1047C0000E490020086070477047000030BCFC07AD
:1047D0004CB9FC07C00000401080000029410000D7
:1047E0007671000058BFFC0748BEFC073803F2078B
:1047F0004003F2079C03F207D803F20700000840C9
:10480000064C0125064E05E0E36807CC2B430C3C23
:1048100098471034B442F7D3FBF77EFCC051FC0735
:10482000E051FC07F8B5040C8BB2264682B25E4319
:104830000D0C1046370C584336048019002179417D
:1048400016466E43370C36048019794126466E436E
:104850008919F8BD02E008C8121F08C1002AFAD160
:1048600070477047002001E001C1121F002AFBD1F0
:1048700070470000E851FC074D7CFC074E7CFC07AC
:10488000487CFC074C7CFC075D03FC077B03FC07B2
:104890004707FC078F07FC07F401010070CAEA8094
:1048A000D0070640643200009848FC07807CFC0773
:1048B0007923FC071724FC0793DEF007F1DEF007ED
:1048C000F9DEF00749DFF00761DFF00777DFF00777
:1048D00099DFF00719E3F007BDE5F007FDE3F00706
:1048E0001DE4F0073DE4F0077BE4F0078BE4F007FC
:1048F000F5F9F007B1F7F007CFF7F007EBF7F0079E
:1049000005F8F00719F8F00797F8F007AFF8F00787
:10491000DFCDF10767D0F107DBB9F007CD0DF20766
:10492000B10EF207AD0EF207A90EF2078D21F007C6
:10493000AD06FC071D1FFC07010AFC073309FC0735
:104940001D09FC07B57EF007837DF007D943FC07FE
:10495000599EF107634CF107A12BFC07D110F20718
:10496000012CFC07B111F2074112F2077912F2078C
:1049700000000000A706FC07A906FC07B9C6F0075F
:10498000D592F1076744FC075F9DF1075F9CF10733
:104990007947FC07EB72F107B922F1076B04F107C5
:1049A0007D06FC072BA4F007F1D2F0075FBDF007EE
:1049B000D5BDF00785BEF007DB2DF007752EF0079B
:1049C0001581F007DF7FF0070937F00700000000CE
:1049D0009706FC079F06FC077F06FC07F3C3F10759
:1049E00075C4F107AB06FC076F24FC07000000004C
:1049F00000000000000000000000000000000000B7
:104A000000000000000000000000000000000000A6
:104A10000000000000000000000000000000000096
:104A20000000000000000000000000000500000081
:104A30007859FC0700080000C084FC070408000047
:104A4000B480FC0700040000D08CFC07900B000031
:104A50002003000000A60E0004000000D2000000A9
:104A6000320000003C0000000100000001000000D6
:104A7000020000000200000004000000030000002B
:104A8000060000000000000002000000020000001C
:104A90000000000000000000030000000300000010
:104AA0000500000005000000060000000A000000EC
:104AB0000A000000C8000000B80B0000020000005F
:104AC000B80B0000B80B000010000000D40100007B
:104AD000CC010000700200006A0000000400000029
:104AE00003000000200000000A0000000100000098
:104AF000E20400008A020000DC050000AF000000B4
:104B0000A848FC0700000000004CFC07784CFC079C
:104B1000000000007448FC070104000000000000D1
:104B200000000000000000003F0000000000000046
:104B30002000800000C00000000084000000282247
:104B4000000000000000040000F7FFFF7F000000ED
:104B500030F0FF0F00000000000400000000000023
:104B60000000000000000000000000000000000045
:104B7000FF0F000001009909030099090700990936
:104B80000F0099091F1099092F2099095F51990960
:104B9000080004900000000000000000030005D0A1
:104BA0008B0035F010005CF0000010B0000018B071
:104BB00000001AB0030051F0000038B000003AB015
:104BC000000064B0000066B0000022B0000024B015
:104BD000010005D0000000000A00008008030490D6
:104BE000000004F0030006D0000000000A0000806E
:104BF00008030490000004F0030006D00000000049
:104C0000944EFC07984EFC079C4EFC075939FC0754
:104C1000130C00004B29F207150C0000752AFC0745
:104C2000170C0000572BF207000C00002328F20796
:104C300006FD00005728F20703FD00003728F207A1
:104C400008FD0000B328F2070EFD00000F29F2074F
:104C500005FD0000992BF207104CFC07090000002D
:104C600014000000ED14F207FD0000002126F207F9
:104C7000FF00000000000000604CFC07B07DFC0756
:104C80000200000000004C044C0407010001020374
:104C900004050600FF000000000000000000000006
:104CA000140000003334FC0700000000FF00000087
:104CB0000000000000000000000000004C4DFC0758
:104CC0005C7EFC0704000300000000000000000000
:104CD00000000000010D00002930FC07000D00005D
:104CE0005130FC07000E00001731FC07010E0000D8
:104CF000E93DFC07030E00005B3EFC070A0E0000C6
:104D00005F31FC070C0E00000932FC071C0D00008F
:104D10003D32FC07100D00000132FC070F0E0000B1
:104D20006132FC072C0E00008732FC07120C0000D9
:104D30008B32FC07080E00008F32FC071B0E0000B0
:104D40000532FC07FFFF00004D35FC07444DFC0712
:104D500001000000130E0000FD32FC07150E0000DC
:104D60004133FC07170E0000E933FC07190E000061
:104D7000ED33FC07150D00000134FC07210D000088
:104D80000534FC07220D00000934FC070214000062
:104D90006D34FC079332FC07BD37FC07FD35FC077B
:104DA0000D34FC07E134FC07B939FC07030000109F
:104DB00000010000FD0000009C4EFC071B000000ED
:104DC0007B39FC070000000000000000000000002C
:104DD000FF000000000000000000000000000000D4
:104DE000000000000000000000000000595A08E424
:104DF000862A9E8FE911BC7C9843421820EE8D0CC8
:104E0000E1F04A0CB325DC536A68862D4F43313CF0
:104E1000939242E6A876FA3BEFB4875A17B967989F
:104E20004C664C01963331B19159001528D5E1C13A
:104E3000E1C54729B55765C3BA47159E8C09E0D12E
:104E4000815442408E4FD2B377E32A77595A08E40F
:104E5000862A9E8FE911BC7C7C46421820EE8D0C80
:104E6000E1F04A0CB325DC536A68862C595A08E4F1
:104E7000862A9E08E911BC7CD047421817B967986A
:104E80004C664C01963331B1915900140028032827
:104E9000022901290013171B030000008C4EFC0798
:104EA000100000000100000010001000EC4DFC0795
:104EB0008E4EFC0702000000010000000000000010
:104EC00000000000FC4DFC0710000000080002007C
:104ED0000100000000000000924EFC0702000000EC
:104EE000010000000D000D006451FC078E4EFC0710
:104EF00002000000010000000000000000000000AF
:104F00000C4EFC071000000008800000018000002B
:104F100000000000924EFC070200000001000000AB
:104F2000090009004C51FC078E4EFC0702000000EE
:104F30000100000000000000000000001C4EFC0703
:104F40001000000001020000C90000000000000085
:104F5000904EFC0702000000090002000200000061
:104F600000000000924EFC0702000000010000005B
:104F70000B000B003051FC078E4EFC0702000000B6
:104F80000100000000000000000000002C4EFC07A3
:104F900010000000410000001400000000000000AC
:104FA000904EFC0702000000090002000200000011
:104FB00000000000924EFC0702000000010000000B
:104FC0000C000C003C51FC078E4EFC070200000058
:104FD0000100000000000000000000003C4EFC0743
:104FE0001000000009020200320000000000000072
:104FF000904EFC07020000000900020002000000C1
:1050000000000000924EFC070200000001000000BA
:105010000A000A005851FC078C4EFC0710000000E3
:1050200001000000100010004C4EFC078E4EFC07E3
:10503000020000000100000000000000000000006D
:105040005C4EFC0710000000090002000280000016
:1050500000000000924EFC0702000000010000006A
:10506000110011001C51FC078C4EFC0710000000C1
:1050700001000000100010006C4EFC078E4EFC0773
:10508000020000000100000000000000000000001D
:105090007C4EFC07100000000100000002800000B0
:1050A00000000000924EFC0702000000010000001A
:1050B000100010000851FC070B08008300000000DE
:1050C00002000000000000000000000000000000DE
:1050D000757365725F6F6E5F696E69740075736575
:1050E000725F6F6E5F7365745F6465765F636F6E2A
:1050F0006669675F636F6D706C65746500000000C2
:10510000010202000003000052656164206D652009
:105110002861707020646229000000005772697471
:1051200065206D6520286170702064622900000090
:105130004144432056616C7565203100496E6469B5
:105140006361746561626C65000000004C45442039
:1051500053746174650000004C6F6E672056616C7B
:1051600075650000436F6E74726F6C20506F696ECE
:105170007400000044657669636520253032783A12
:10518000253032783A253032783A253032783A254F
:105190003032783A25303278206861732064697340
:1051A000636F6E6E65637465642064756520746FEB
:1051B00020726561736F6E20253032780A0D000011
:1051C000E451FC07E851FC07900700006448FC0725
:1051D000487CFC07487CFC076C0400006448FC0722
:0451E0000E000000BD
:0400000507FC0111E2
:00000001FF
